{
  "_format": "hh-sol-artifact-1",
  "contractName": "GroovesGacha",
  "sourceName": "contracts/GroovesGacha.sol",
  "abi": [
    {
      "inputs": [
        {
          "internalType": "address",
          "name": "addr",
          "type": "address"
        }
      ],
      "stateMutability": "nonpayable",
      "type": "constructor"
    },
    {
      "anonymous": false,
      "inputs": [
        {
          "indexed": true,
          "internalType": "address",
          "name": "owner",
          "type": "address"
        },
        {
          "indexed": true,
          "internalType": "address",
          "name": "approved",
          "type": "address"
        },
        {
          "indexed": true,
          "internalType": "uint256",
          "name": "tokenId",
          "type": "uint256"
        }
      ],
      "name": "Approval",
      "type": "event"
    },
    {
      "anonymous": false,
      "inputs": [
        {
          "indexed": true,
          "internalType": "address",
          "name": "owner",
          "type": "address"
        },
        {
          "indexed": true,
          "internalType": "address",
          "name": "operator",
          "type": "address"
        },
        {
          "indexed": false,
          "internalType": "bool",
          "name": "approved",
          "type": "bool"
        }
      ],
      "name": "ApprovalForAll",
      "type": "event"
    },
    {
      "anonymous": false,
      "inputs": [
        {
          "indexed": false,
          "internalType": "uint256",
          "name": "_fromTokenId",
          "type": "uint256"
        },
        {
          "indexed": false,
          "internalType": "uint256",
          "name": "_toTokenId",
          "type": "uint256"
        }
      ],
      "name": "BatchMetadataUpdate",
      "type": "event"
    },
    {
      "anonymous": false,
      "inputs": [
        {
          "indexed": false,
          "internalType": "uint256",
          "name": "length",
          "type": "uint256"
        }
      ],
      "name": "GachaAdded",
      "type": "event"
    },
    {
      "anonymous": false,
      "inputs": [
        {
          "indexed": false,
          "internalType": "uint256",
          "name": "length",
          "type": "uint256"
        }
      ],
      "name": "GachaCanceled",
      "type": "event"
    },
    {
      "anonymous": false,
      "inputs": [
        {
          "indexed": false,
          "internalType": "uint256",
          "name": "length",
          "type": "uint256"
        },
        {
          "indexed": true,
          "internalType": "address",
          "name": "operator",
          "type": "address"
        },
        {
          "indexed": false,
          "internalType": "uint256",
          "name": "paytype",
          "type": "uint256"
        }
      ],
      "name": "GachaDone",
      "type": "event"
    },
    {
      "anonymous": false,
      "inputs": [
        {
          "indexed": false,
          "internalType": "uint256",
          "name": "_tokenId",
          "type": "uint256"
        }
      ],
      "name": "MetadataUpdate",
      "type": "event"
    },
    {
      "anonymous": false,
      "inputs": [
        {
          "indexed": true,
          "internalType": "bytes32",
          "name": "role",
          "type": "bytes32"
        },
        {
          "indexed": true,
          "internalType": "bytes32",
          "name": "previousAdminRole",
          "type": "bytes32"
        },
        {
          "indexed": true,
          "internalType": "bytes32",
          "name": "newAdminRole",
          "type": "bytes32"
        }
      ],
      "name": "RoleAdminChanged",
      "type": "event"
    },
    {
      "anonymous": false,
      "inputs": [
        {
          "indexed": true,
          "internalType": "bytes32",
          "name": "role",
          "type": "bytes32"
        },
        {
          "indexed": true,
          "internalType": "address",
          "name": "account",
          "type": "address"
        },
        {
          "indexed": true,
          "internalType": "address",
          "name": "sender",
          "type": "address"
        }
      ],
      "name": "RoleGranted",
      "type": "event"
    },
    {
      "anonymous": false,
      "inputs": [
        {
          "indexed": true,
          "internalType": "bytes32",
          "name": "role",
          "type": "bytes32"
        },
        {
          "indexed": true,
          "internalType": "address",
          "name": "account",
          "type": "address"
        },
        {
          "indexed": true,
          "internalType": "address",
          "name": "sender",
          "type": "address"
        }
      ],
      "name": "RoleRevoked",
      "type": "event"
    },
    {
      "anonymous": false,
      "inputs": [
        {
          "indexed": true,
          "internalType": "address",
          "name": "from",
          "type": "address"
        },
        {
          "indexed": true,
          "internalType": "address",
          "name": "to",
          "type": "address"
        },
        {
          "indexed": true,
          "internalType": "uint256",
          "name": "tokenId",
          "type": "uint256"
        }
      ],
      "name": "Transfer",
      "type": "event"
    },
    {
      "inputs": [],
      "name": "DEFAULT_ADMIN_ROLE",
      "outputs": [
        {
          "internalType": "bytes32",
          "name": "",
          "type": "bytes32"
        }
      ],
      "stateMutability": "view",
      "type": "function"
    },
    {
      "inputs": [],
      "name": "MINTER_ROLE",
      "outputs": [
        {
          "internalType": "bytes32",
          "name": "",
          "type": "bytes32"
        }
      ],
      "stateMutability": "view",
      "type": "function"
    },
    {
      "inputs": [
        {
          "internalType": "uint256[]",
          "name": "tokenIds",
          "type": "uint256[]"
        }
      ],
      "name": "addGachaList",
      "outputs": [],
      "stateMutability": "nonpayable",
      "type": "function"
    },
    {
      "inputs": [],
      "name": "admin",
      "outputs": [
        {
          "internalType": "address",
          "name": "",
          "type": "address"
        }
      ],
      "stateMutability": "view",
      "type": "function"
    },
    {
      "inputs": [
        {
          "internalType": "address",
          "name": "to",
          "type": "address"
        },
        {
          "internalType": "uint256",
          "name": "tokenId",
          "type": "uint256"
        }
      ],
      "name": "approve",
      "outputs": [],
      "stateMutability": "nonpayable",
      "type": "function"
    },
    {
      "inputs": [
        {
          "internalType": "address",
          "name": "owner",
          "type": "address"
        }
      ],
      "name": "balanceOf",
      "outputs": [
        {
          "internalType": "uint256",
          "name": "",
          "type": "uint256"
        }
      ],
      "stateMutability": "view",
      "type": "function"
    },
    {
      "inputs": [
        {
          "internalType": "uint256",
          "name": "tokenId",
          "type": "uint256"
        }
      ],
      "name": "burn",
      "outputs": [],
      "stateMutability": "nonpayable",
      "type": "function"
    },
    {
      "inputs": [
        {
          "internalType": "uint256",
          "name": "tokenId",
          "type": "uint256"
        }
      ],
      "name": "burnNFT",
      "outputs": [],
      "stateMutability": "nonpayable",
      "type": "function"
    },
    {
      "inputs": [
        {
          "internalType": "uint256[]",
          "name": "tokenIds",
          "type": "uint256[]"
        },
        {
          "internalType": "uint256",
          "name": "payType",
          "type": "uint256"
        }
      ],
      "name": "execGacha",
      "outputs": [],
      "stateMutability": "payable",
      "type": "function"
    },
    {
      "inputs": [
        {
          "internalType": "uint256",
          "name": "tokenId",
          "type": "uint256"
        }
      ],
      "name": "getApproved",
      "outputs": [
        {
          "internalType": "address",
          "name": "",
          "type": "address"
        }
      ],
      "stateMutability": "view",
      "type": "function"
    },
    {
      "inputs": [],
      "name": "getCurrentId",
      "outputs": [
        {
          "internalType": "uint256",
          "name": "",
          "type": "uint256"
        }
      ],
      "stateMutability": "view",
      "type": "function"
    },
    {
      "inputs": [],
      "name": "getGachaSpinPrice",
      "outputs": [
        {
          "internalType": "uint256[]",
          "name": "",
          "type": "uint256[]"
        }
      ],
      "stateMutability": "view",
      "type": "function"
    },
    {
      "inputs": [
        {
          "internalType": "bytes32",
          "name": "role",
          "type": "bytes32"
        }
      ],
      "name": "getRoleAdmin",
      "outputs": [
        {
          "internalType": "bytes32",
          "name": "",
          "type": "bytes32"
        }
      ],
      "stateMutability": "view",
      "type": "function"
    },
    {
      "inputs": [
        {
          "internalType": "uint256",
          "name": "tokenId",
          "type": "uint256"
        }
      ],
      "name": "getTokenForId",
      "outputs": [
        {
          "components": [
            {
              "internalType": "uint256",
              "name": "id",
              "type": "uint256"
            },
            {
              "internalType": "address",
              "name": "owner",
              "type": "address"
            },
            {
              "internalType": "string",
              "name": "tokenURI",
              "type": "string"
            },
            {
              "internalType": "uint256",
              "name": "paytype",
              "type": "uint256"
            },
            {
              "internalType": "uint256",
              "name": "price",
              "type": "uint256"
            },
            {
              "internalType": "uint256",
              "name": "status",
              "type": "uint256"
            },
            {
              "internalType": "uint256",
              "name": "time",
              "type": "uint256"
            }
          ],
          "internalType": "struct IGroovesNFT.Token",
          "name": "",
          "type": "tuple"
        }
      ],
      "stateMutability": "view",
      "type": "function"
    },
    {
      "inputs": [],
      "name": "getTokens",
      "outputs": [
        {
          "components": [
            {
              "internalType": "uint256",
              "name": "id",
              "type": "uint256"
            },
            {
              "internalType": "address",
              "name": "owner",
              "type": "address"
            },
            {
              "internalType": "string",
              "name": "tokenURI",
              "type": "string"
            },
            {
              "internalType": "uint256",
              "name": "paytype",
              "type": "uint256"
            },
            {
              "internalType": "uint256",
              "name": "price",
              "type": "uint256"
            },
            {
              "internalType": "uint256",
              "name": "status",
              "type": "uint256"
            },
            {
              "internalType": "uint256",
              "name": "time",
              "type": "uint256"
            }
          ],
          "internalType": "struct IGroovesNFT.Token[]",
          "name": "",
          "type": "tuple[]"
        }
      ],
      "stateMutability": "view",
      "type": "function"
    },
    {
      "inputs": [
        {
          "internalType": "bytes32",
          "name": "role",
          "type": "bytes32"
        },
        {
          "internalType": "address",
          "name": "account",
          "type": "address"
        }
      ],
      "name": "grantRole",
      "outputs": [],
      "stateMutability": "nonpayable",
      "type": "function"
    },
    {
      "inputs": [
        {
          "internalType": "bytes32",
          "name": "role",
          "type": "bytes32"
        },
        {
          "internalType": "address",
          "name": "account",
          "type": "address"
        }
      ],
      "name": "hasRole",
      "outputs": [
        {
          "internalType": "bool",
          "name": "",
          "type": "bool"
        }
      ],
      "stateMutability": "view",
      "type": "function"
    },
    {
      "inputs": [
        {
          "internalType": "address",
          "name": "owner",
          "type": "address"
        },
        {
          "internalType": "address",
          "name": "operator",
          "type": "address"
        }
      ],
      "name": "isApprovedForAll",
      "outputs": [
        {
          "internalType": "bool",
          "name": "",
          "type": "bool"
        }
      ],
      "stateMutability": "view",
      "type": "function"
    },
    {
      "inputs": [
        {
          "internalType": "string",
          "name": "tokenUri",
          "type": "string"
        },
        {
          "internalType": "uint256",
          "name": "quantity",
          "type": "uint256"
        }
      ],
      "name": "mintNFT",
      "outputs": [],
      "stateMutability": "nonpayable",
      "type": "function"
    },
    {
      "inputs": [],
      "name": "name",
      "outputs": [
        {
          "internalType": "string",
          "name": "",
          "type": "string"
        }
      ],
      "stateMutability": "view",
      "type": "function"
    },
    {
      "inputs": [
        {
          "internalType": "uint256",
          "name": "tokenId",
          "type": "uint256"
        }
      ],
      "name": "ownerOf",
      "outputs": [
        {
          "internalType": "address",
          "name": "",
          "type": "address"
        }
      ],
      "stateMutability": "view",
      "type": "function"
    },
    {
      "inputs": [],
      "name": "payToken",
      "outputs": [
        {
          "internalType": "contract IERC20",
          "name": "",
          "type": "address"
        }
      ],
      "stateMutability": "view",
      "type": "function"
    },
    {
      "inputs": [
        {
          "internalType": "uint256[]",
          "name": "tokenIds",
          "type": "uint256[]"
        }
      ],
      "name": "removeGachaList",
      "outputs": [],
      "stateMutability": "nonpayable",
      "type": "function"
    },
    {
      "inputs": [
        {
          "internalType": "bytes32",
          "name": "role",
          "type": "bytes32"
        },
        {
          "internalType": "address",
          "name": "account",
          "type": "address"
        }
      ],
      "name": "renounceRole",
      "outputs": [],
      "stateMutability": "nonpayable",
      "type": "function"
    },
    {
      "inputs": [
        {
          "internalType": "bytes32",
          "name": "role",
          "type": "bytes32"
        },
        {
          "internalType": "address",
          "name": "account",
          "type": "address"
        }
      ],
      "name": "revokeRole",
      "outputs": [],
      "stateMutability": "nonpayable",
      "type": "function"
    },
    {
      "inputs": [
        {
          "internalType": "address",
          "name": "from",
          "type": "address"
        },
        {
          "internalType": "address",
          "name": "to",
          "type": "address"
        },
        {
          "internalType": "uint256",
          "name": "tokenId",
          "type": "uint256"
        }
      ],
      "name": "safeTransferFrom",
      "outputs": [],
      "stateMutability": "nonpayable",
      "type": "function"
    },
    {
      "inputs": [
        {
          "internalType": "address",
          "name": "from",
          "type": "address"
        },
        {
          "internalType": "address",
          "name": "to",
          "type": "address"
        },
        {
          "internalType": "uint256",
          "name": "tokenId",
          "type": "uint256"
        },
        {
          "internalType": "bytes",
          "name": "data",
          "type": "bytes"
        }
      ],
      "name": "safeTransferFrom",
      "outputs": [],
      "stateMutability": "nonpayable",
      "type": "function"
    },
    {
      "inputs": [
        {
          "internalType": "address",
          "name": "operator",
          "type": "address"
        },
        {
          "internalType": "bool",
          "name": "approved",
          "type": "bool"
        }
      ],
      "name": "setApprovalForAll",
      "outputs": [],
      "stateMutability": "nonpayable",
      "type": "function"
    },
    {
      "inputs": [
        {
          "internalType": "uint256[]",
          "name": "prices",
          "type": "uint256[]"
        }
      ],
      "name": "setGachaSpinPrice",
      "outputs": [],
      "stateMutability": "nonpayable",
      "type": "function"
    },
    {
      "inputs": [
        {
          "components": [
            {
              "internalType": "uint256",
              "name": "id",
              "type": "uint256"
            },
            {
              "internalType": "address",
              "name": "owner",
              "type": "address"
            },
            {
              "internalType": "string",
              "name": "tokenURI",
              "type": "string"
            },
            {
              "internalType": "uint256",
              "name": "paytype",
              "type": "uint256"
            },
            {
              "internalType": "uint256",
              "name": "price",
              "type": "uint256"
            },
            {
              "internalType": "uint256",
              "name": "status",
              "type": "uint256"
            },
            {
              "internalType": "uint256",
              "name": "time",
              "type": "uint256"
            }
          ],
          "internalType": "struct IGroovesNFT.Token",
          "name": "t",
          "type": "tuple"
        },
        {
          "internalType": "uint256",
          "name": "tokenId",
          "type": "uint256"
        }
      ],
      "name": "setToken",
      "outputs": [],
      "stateMutability": "nonpayable",
      "type": "function"
    },
    {
      "inputs": [],
      "name": "spin10BnbPrice",
      "outputs": [
        {
          "internalType": "uint256",
          "name": "",
          "type": "uint256"
        }
      ],
      "stateMutability": "view",
      "type": "function"
    },
    {
      "inputs": [],
      "name": "spin10GrvcPrice",
      "outputs": [
        {
          "internalType": "uint256",
          "name": "",
          "type": "uint256"
        }
      ],
      "stateMutability": "view",
      "type": "function"
    },
    {
      "inputs": [],
      "name": "spin1BnbPrice",
      "outputs": [
        {
          "internalType": "uint256",
          "name": "",
          "type": "uint256"
        }
      ],
      "stateMutability": "view",
      "type": "function"
    },
    {
      "inputs": [],
      "name": "spin1GrvcPrice",
      "outputs": [
        {
          "internalType": "uint256",
          "name": "",
          "type": "uint256"
        }
      ],
      "stateMutability": "view",
      "type": "function"
    },
    {
      "inputs": [],
      "name": "spin5BnbPrice",
      "outputs": [
        {
          "internalType": "uint256",
          "name": "",
          "type": "uint256"
        }
      ],
      "stateMutability": "view",
      "type": "function"
    },
    {
      "inputs": [],
      "name": "spin5GrvcPrice",
      "outputs": [
        {
          "internalType": "uint256",
          "name": "",
          "type": "uint256"
        }
      ],
      "stateMutability": "view",
      "type": "function"
    },
    {
      "inputs": [
        {
          "internalType": "bytes4",
          "name": "interfaceId",
          "type": "bytes4"
        }
      ],
      "name": "supportsInterface",
      "outputs": [
        {
          "internalType": "bool",
          "name": "",
          "type": "bool"
        }
      ],
      "stateMutability": "view",
      "type": "function"
    },
    {
      "inputs": [],
      "name": "symbol",
      "outputs": [
        {
          "internalType": "string",
          "name": "",
          "type": "string"
        }
      ],
      "stateMutability": "view",
      "type": "function"
    },
    {
      "inputs": [
        {
          "internalType": "uint256",
          "name": "tokenId",
          "type": "uint256"
        }
      ],
      "name": "tokenURI",
      "outputs": [
        {
          "internalType": "string",
          "name": "",
          "type": "string"
        }
      ],
      "stateMutability": "view",
      "type": "function"
    },
    {
      "inputs": [
        {
          "internalType": "address",
          "name": "from",
          "type": "address"
        },
        {
          "internalType": "address",
          "name": "to",
          "type": "address"
        },
        {
          "internalType": "uint256",
          "name": "tokenId",
          "type": "uint256"
        }
      ],
      "name": "transferFrom",
      "outputs": [],
      "stateMutability": "nonpayable",
      "type": "function"
    },
    {
      "inputs": [
        {
          "internalType": "address",
          "name": "from",
          "type": "address"
        },
        {
          "internalType": "address",
          "name": "to",
          "type": "address"
        },
        {
          "internalType": "uint256",
          "name": "tokenId",
          "type": "uint256"
        }
      ],
      "name": "transferNFT",
      "outputs": [],
      "stateMutability": "nonpayable",
      "type": "function"
    }
  ],
  "bytecode": "0x6080604052600880546001600160a01b03199081167352e087107876cfd8b460160cca5074956d9ab27e179091556009805490911673494332cffc6ca402547f4485c177622abec370041790553480156200005957600080fd5b5060405162003926380380620039268339810160408190526200007c916200023d565b6040518060400160405280600a81526020016911dc9bdbdd995cd3919560b21b8152506040518060400160405280600481526020016311d3919560e21b8152508160009081620000cd919062000314565b506001620000dc828262000314565b50620000ee9150600090503362000185565b60095462000108906000906001600160a01b031662000185565b600c80546001600160a01b0319166001600160a01b038316179055670de0b6b3a764000062000139816001620003e0565b600d5562000149816004620003e0565b600e5562000159816007620003e0565b600f555050662386f26fc10000601055668e1bc9bf04000060115566f8b0a10e47000060125562000406565b62000191828262000210565b6200020c5760008281526007602090815260408083206001600160a01b03851684529091529020805460ff19166001179055620001cb3390565b6001600160a01b0316816001600160a01b0316837f2f8788117e7eff1d82e926ec794901d17c78024a50270940304540a733656f0d60405160405180910390a45b5050565b60008281526007602090815260408083206001600160a01b038516845290915290205460ff165b92915050565b6000602082840312156200025057600080fd5b81516001600160a01b03811681146200026857600080fd5b9392505050565b634e487b7160e01b600052604160045260246000fd5b600181811c908216806200029a57607f821691505b602082108103620002bb57634e487b7160e01b600052602260045260246000fd5b50919050565b601f8211156200030f57600081815260208120601f850160051c81016020861015620002ea5750805b601f850160051c820191505b818110156200030b57828155600101620002f6565b5050505b505050565b81516001600160401b038111156200033057620003306200026f565b620003488162000341845462000285565b84620002c1565b602080601f831160018114620003805760008415620003675750858301515b600019600386901b1c1916600185901b1785556200030b565b600085815260208120601f198616915b82811015620003b15788860151825594840194600190910190840162000390565b5085821015620003d05787850151600019600388901b60f8161c191681555b5050505050600190811b01905550565b80820281158282048414176200023757634e487b7160e01b600052601160045260246000fd5b61351080620004166000396000f3fe6080604052600436106102465760003560e01c806370a0823111610139578063a4b4739e116100b6578063d53913931161007a578063d5391393146106ab578063d547741f146106df578063dd593e5c146106ff578063e985e9c514610715578063f6473ea41461075e578063f851a4401461077e57600080fd5b8063a4b4739e1461061d578063aa6ca80814610633578063b4a1967614610655578063b88d4fde1461066b578063c87b56dd1461068b57600080fd5b806396336b30116100fd57806396336b3014610592578063996d478f146105b25780639a2c8537146105c8578063a217fddf146105e8578063a22cb465146105fd57600080fd5b806370a082311461050a57806378fa91a61461052a5780638d5a82451461054a57806391d148541461055d57806395d89b411461057d57600080fd5b80632890e0d7116101c75780634675f6261161018b5780634675f6261461047f5780635afa3a72146104955780636352211e146104b557806369e9cae1146104d55780636c143862146104f557600080fd5b80632890e0d7146103df5780632f2ff15d146103ff57806336568abe1461041f57806342842e0e1461043f57806342966c681461045f57600080fd5b80630c8c14311161020e5780630c8c14311461031c57806317b731091461033e57806323b872dd146103625780632444a8a614610382578063248a9ca3146103af57600080fd5b806301ffc9a71461024b57806305f40ae11461028057806306fdde03146102a2578063081812fc146102c4578063095ea7b3146102fc575b600080fd5b34801561025757600080fd5b5061026b6102663660046129a9565b61079e565b60405190151581526020015b60405180910390f35b34801561028c57600080fd5b506102a061029b366004612ab3565b6107af565b005b3480156102ae57600080fd5b506102b761099d565b6040516102779190612b37565b3480156102d057600080fd5b506102e46102df366004612b4a565b610a2f565b6040516001600160a01b039091168152602001610277565b34801561030857600080fd5b506102a0610317366004612b7f565b610a56565b34801561032857600080fd5b50610331610b6b565b6040516102779190612ba9565b34801561034a57600080fd5b50610354600f5481565b604051908152602001610277565b34801561036e57600080fd5b506102a061037d366004612bed565b610c62565b34801561038e57600080fd5b506103a261039d366004612b4a565b610c94565b6040516102779190612c8e565b3480156103bb57600080fd5b506103546103ca366004612b4a565b60009081526007602052604090206001015490565b3480156103eb57600080fd5b506102a06103fa366004612b4a565b610d97565b34801561040b57600080fd5b506102a061041a366004612ca1565b610da3565b34801561042b57600080fd5b506102a061043a366004612ca1565b610dc8565b34801561044b57600080fd5b506102a061045a366004612bed565b610e42565b34801561046b57600080fd5b506102a061047a366004612b4a565b610e5d565b34801561048b57600080fd5b50610354600d5481565b3480156104a157600080fd5b506102a06104b0366004612d52565b610e82565b3480156104c157600080fd5b506102e46104d0366004612b4a565b610fa2565b3480156104e157600080fd5b506102a06104f0366004612bed565b610c89565b34801561050157600080fd5b50610354611002565b34801561051657600080fd5b50610354610525366004612d96565b611012565b34801561053657600080fd5b506102a0610545366004612db1565b611098565b6102a0610558366004612e6c565b611118565b34801561056957600080fd5b5061026b610578366004612ca1565b61154f565b34801561058957600080fd5b506102b761157a565b34801561059e57600080fd5b506008546102e4906001600160a01b031681565b3480156105be57600080fd5b5061035460125481565b3480156105d457600080fd5b506102a06105e3366004612ab3565b611589565b3480156105f457600080fd5b50610354600081565b34801561060957600080fd5b506102a0610618366004612eaf565b611652565b34801561062957600080fd5b5061035460105481565b34801561063f57600080fd5b5061064861165d565b6040516102779190612ee6565b34801561066157600080fd5b5061035460115481565b34801561067757600080fd5b506102a0610686366004612f48565b611806565b34801561069757600080fd5b506102b76106a6366004612b4a565b61183e565b3480156106b757600080fd5b506103547f9f2df0fed2c77648de5860a4cc508cd0818c85b8b8a1ab4ceeef8d981c8956a681565b3480156106eb57600080fd5b506102a06106fa366004612ca1565b611849565b34801561070b57600080fd5b50610354600e5481565b34801561072157600080fd5b5061026b610730366004612fc3565b6001600160a01b03918216600090815260056020908152604080832093909416825291909152205460ff1690565b34801561076a57600080fd5b506102a0610779366004612ab3565b61186e565b34801561078a57600080fd5b506009546102e4906001600160a01b031681565b60006107a982611a4f565b92915050565b6107ba60003361154f565b6107df5760405162461bcd60e51b81526004016107d690612fed565b60405180910390fd5b60005b81518110156109995760008282815181106107ff576107ff61301d565b6020908102919091010151600c546040516369e9cae160e01b81529192506001600160a01b0316906369e9cae19061083f90309033908690600401613033565b600060405180830381600087803b15801561085957600080fd5b505af115801561086d573d6000803e3d6000fd5b50506040805160e081018252848152336020820152600c54825163c87b56dd60e01b81526004810187905260009550919350918301916001600160a01b03169063c87b56dd90602401600060405180830381865afa1580156108d3573d6000803e3d6000fd5b505050506040513d6000823e601f3d908101601f191682016040526108fb9190810190613057565b81526000602082018190526040808301919091526001606083015242608090920191909152600c549051633c7d48d360e11b81529192506001600160a01b0316906378fa91a69061095290849086906004016130cd565b600060405180830381600087803b15801561096c57600080fd5b505af1158015610980573d6000803e3d6000fd5b505050505050808061099190613105565b9150506107e2565b5050565b6060600080546109ac9061311e565b80601f01602080910402602001604051908101604052809291908181526020018280546109d89061311e565b8015610a255780601f106109fa57610100808354040283529160200191610a25565b820191906000526020600020905b815481529060010190602001808311610a0857829003601f168201915b5050505050905090565b6000610a3a82611a74565b506000908152600460205260409020546001600160a01b031690565b6000610a6182610fa2565b9050806001600160a01b0316836001600160a01b031603610ace5760405162461bcd60e51b815260206004820152602160248201527f4552433732313a20617070726f76616c20746f2063757272656e74206f776e656044820152603960f91b60648201526084016107d6565b336001600160a01b0382161480610aea5750610aea8133610730565b610b5c5760405162461bcd60e51b815260206004820152603d60248201527f4552433732313a20617070726f76652063616c6c6572206973206e6f7420746f60448201527f6b656e206f776e6572206f7220617070726f76656420666f7220616c6c00000060648201526084016107d6565b610b668383611ad3565b505050565b60408051600680825260e08201909252606091600091906020820160c080368337019050509050600d5481600081518110610ba857610ba861301d565b602002602001018181525050600e5481600181518110610bca57610bca61301d565b602002602001018181525050600f5481600281518110610bec57610bec61301d565b60200260200101818152505060105481600381518110610c0e57610c0e61301d565b60200260200101818152505060115481600481518110610c3057610c3061301d565b60200260200101818152505060125481600581518110610c5257610c5261301d565b6020908102919091010152919050565b610c6d335b82611b41565b610c895760405162461bcd60e51b81526004016107d690613152565b610b66838383611bc0565b610c9c6128ff565b6000828152600a6020908152604091829020825160e0810184528154815260018201546001600160a01b0316928101929092526002810180549293919291840191610ce69061311e565b80601f0160208091040260200160405190810160405280929190818152602001828054610d129061311e565b8015610d5f5780601f10610d3457610100808354040283529160200191610d5f565b820191906000526020600020905b815481529060010190602001808311610d4257829003601f168201915b505050505081526020016003820154815260200160048201548152602001600582015481526020016006820154815250509050919050565b610da081611d24565b50565b600082815260076020526040902060010154610dbe81611d2d565b610b668383611d37565b6001600160a01b0381163314610e385760405162461bcd60e51b815260206004820152602f60248201527f416363657373436f6e74726f6c3a2063616e206f6e6c792072656e6f756e636560448201526e103937b632b9903337b91039b2b63360891b60648201526084016107d6565b6109998282611dbd565b610b6683838360405180602001604052806000815250611806565b610e6633610c67565b610d975760405162461bcd60e51b81526004016107d690613152565b610e8d60003361154f565b610ea95760405162461bcd60e51b81526004016107d690612fed565b60005b81811015610b6657610ec2600b80546001019055565b6000610ecd600b5490565b9050610ed93382611e24565b610ee38185611e3e565b6040805160e08101825282815233602080830191825282840188815260006060850181905260808501819052600160a086018190524260c0870152878252600a9093529490942083518155915190820180546001600160a01b0319166001600160a01b0390921691909117905591519091906002820190610f6490826131ed565b50606082015160038201556080820151600482015560a0820151600582015560c0909101516006909101555080610f9a81613105565b915050610eac565b6000818152600260205260408120546001600160a01b0316806107a95760405162461bcd60e51b8152602060048201526018602482015277115490cdcc8c4e881a5b9d985b1a59081d1bdad95b88125160421b60448201526064016107d6565b600061100d600b5490565b905090565b60006001600160a01b03821661107c5760405162461bcd60e51b815260206004820152602960248201527f4552433732313a2061646472657373207a65726f206973206e6f7420612076616044820152683634b21037bbb732b960b91b60648201526084016107d6565b506001600160a01b031660009081526003602052604090205490565b6000818152600a602090815260409182902084518155908401516001820180546001600160a01b0319166001600160a01b039092169190911790559083015183919060028201906110e990826131ed565b50606082015160038201556080820151600482015560a0820151600582015560c0909101516006909101555050565b8151600090600a8114801561112d5750826001145b1561113857600f5491505b8060051480156111485750826001145b1561115357600e5491505b8060011480156111635750826001145b1561116e57600d5491505b80600a14801561117e5750826002145b156111895760125491505b8060051480156111995750826002145b156111a45760115491505b8060011480156111b45750826002145b156111bf5760105491505b82600103611302576008546040516370a0823160e01b815233600482015283916001600160a01b0316906370a0823190602401602060405180830381865afa15801561120f573d6000803e3d6000fd5b505050506040513d601f19601f8201168201806040525081019061123391906132ac565b116112805760405162461bcd60e51b815260206004820152601b60248201527f596f7520646f6e2774206861766520656e6f75676820475256432e000000000060448201526064016107d6565b6008546009546040516323b872dd60e01b81526001600160a01b03928316926323b872dd926112b9923392909116908790600401613033565b6020604051808303816000875af11580156112d8573d6000803e3d6000fd5b505050506040513d601f19601f820116820180604052508101906112fc91906132c5565b5061138e565b333182106113525760405162461bcd60e51b815260206004820152601a60248201527f596f7520646f6e2774206861766520656e6f75676820424e422e00000000000060448201526064016107d6565b6009546040516001600160a01b039091169083156108fc029084906000818181858888f1935050505015801561138c573d6000803e3d6000fd5b505b60005b818110156115485760008582815181106113ad576113ad61301d565b6020908102919091010151600c546040516369e9cae160e01b81529192506001600160a01b0316906369e9cae1906113ed90309033908690600401613033565b600060405180830381600087803b15801561140757600080fd5b505af115801561141b573d6000803e3d6000fd5b50506040805160e081018252848152336020820152600c54825163c87b56dd60e01b81526004810187905260009550919350918301916001600160a01b03169063c87b56dd90602401600060405180830381865afa158015611481573d6000803e3d6000fd5b505050506040513d6000823e601f3d908101601f191682016040526114a99190810190613057565b8152602081018890526040016114bf86886132e2565b81526007602082015242604091820152600c549051633c7d48d360e11b81529192506001600160a01b0316906378fa91a69061150190849086906004016130cd565b600060405180830381600087803b15801561151b57600080fd5b505af115801561152f573d6000803e3d6000fd5b505050505050808061154090613105565b915050611391565b5050505050565b60009182526007602090815260408084206001600160a01b0393909316845291905290205460ff1690565b6060600180546109ac9061311e565b8060008151811061159c5761159c61301d565b6020026020010151600d81905550806001815181106115bd576115bd61301d565b6020026020010151600e81905550806002815181106115de576115de61301d565b6020026020010151600f81905550806003815181106115ff576115ff61301d565b6020026020010151601081905550806004815181106116205761162061301d565b6020026020010151601181905550806005815181106116415761164161301d565b602002602001015160128190555050565b610999338383611f09565b6060600061166a600b5490565b6001600160401b03811115611681576116816129c6565b6040519080825280602002602001820160405280156116ba57816020015b6116a76128ff565b81526020019060019003908161169f5790505b50905060005b600b54811015611800576000600a816116da846001613304565b81526020808201929092526040908101600020815160e0810183528154815260018201546001600160a01b03169381019390935260028101805491945084928401916117259061311e565b80601f01602080910402602001604051908101604052809291908181526020018280546117519061311e565b801561179e5780601f106117735761010080835404028352916020019161179e565b820191906000526020600020905b81548152906001019060200180831161178157829003601f168201915b505050505081526020016003820154815260200160048201548152602001600582015481526020016006820154815250508383815181106117e1576117e161301d565b60200260200101819052505080806117f890613105565b9150506116c0565b50919050565b6118103383611b41565b61182c5760405162461bcd60e51b81526004016107d690613152565b61183884848484611fd7565b50505050565b60606107a98261200a565b60008281526007602052604090206001015461186481611d2d565b610b668383611dbd565b61187960003361154f565b6118955760405162461bcd60e51b81526004016107d690612fed565b60005b81518110156109995760008282815181106118b5576118b561301d565b6020908102919091010151600c546040516369e9cae160e01b81529192506001600160a01b0316906369e9cae1906118f590339030908690600401613033565b600060405180830381600087803b15801561190f57600080fd5b505af1158015611923573d6000803e3d6000fd5b50506040805160e081018252848152306020820152600c54825163c87b56dd60e01b81526004810187905260009550919350918301916001600160a01b03169063c87b56dd90602401600060405180830381865afa158015611989573d6000803e3d6000fd5b505050506040513d6000823e601f3d908101601f191682016040526119b19190810190613057565b81526000602082018190526040808301919091526006606083015242608090920191909152600c549051633c7d48d360e11b81529192506001600160a01b0316906378fa91a690611a0890849086906004016130cd565b600060405180830381600087803b158015611a2257600080fd5b505af1158015611a36573d6000803e3d6000fd5b5050505050508080611a4790613105565b915050611898565b60006001600160e01b03198216637965db0b60e01b14806107a957506107a982612112565b6000818152600260205260409020546001600160a01b0316610da05760405162461bcd60e51b8152602060048201526018602482015277115490cdcc8c4e881a5b9d985b1a59081d1bdad95b88125160421b60448201526064016107d6565b600081815260046020526040902080546001600160a01b0319166001600160a01b0384169081179091558190611b0882610fa2565b6001600160a01b03167f8c5be1e5ebec7d5bd14f71427d1e84f3dd0314c0f7b2291e5b200ac8c7c3b92560405160405180910390a45050565b600080611b4d83610fa2565b9050806001600160a01b0316846001600160a01b03161480611b9457506001600160a01b0380821660009081526005602090815260408083209388168352929052205460ff165b80611bb85750836001600160a01b0316611bad84610a2f565b6001600160a01b0316145b949350505050565b826001600160a01b0316611bd382610fa2565b6001600160a01b031614611bf95760405162461bcd60e51b81526004016107d690613317565b6001600160a01b038216611c5b5760405162461bcd60e51b8152602060048201526024808201527f4552433732313a207472616e7366657220746f20746865207a65726f206164646044820152637265737360e01b60648201526084016107d6565b826001600160a01b0316611c6e82610fa2565b6001600160a01b031614611c945760405162461bcd60e51b81526004016107d690613317565b600081815260046020908152604080832080546001600160a01b03199081169091556001600160a01b0387811680865260038552838620805460001901905590871680865283862080546001019055868652600290945282852080549092168417909155905184937fddf252ad1be2c89b69c2b068fc378daa952ba7f163c4a11628f55a4df523b3ef91a4505050565b610da081612137565b610da08133612177565b611d41828261154f565b6109995760008281526007602090815260408083206001600160a01b03851684529091529020805460ff19166001179055611d793390565b6001600160a01b0316816001600160a01b0316837f2f8788117e7eff1d82e926ec794901d17c78024a50270940304540a733656f0d60405160405180910390a45050565b611dc7828261154f565b156109995760008281526007602090815260408083206001600160a01b0385168085529252808320805460ff1916905551339285917ff6391f5c32d9c69d2a47ea670b442974b53935d1edc7fd64eb21e047a839171b9190a45050565b6109998282604051806020016040528060008152506121d0565b6000828152600260205260409020546001600160a01b0316611eb95760405162461bcd60e51b815260206004820152602e60248201527f45524337323155524953746f726167653a2055524920736574206f66206e6f6e60448201526d32bc34b9ba32b73a103a37b5b2b760911b60648201526084016107d6565b6000828152600660205260409020611ed182826131ed565b506040518281527ff8e1a15aba9398e019f0b49df1a4fde98ee17ae345cb5f6b5e2c27f5033e8ce79060200160405180910390a15050565b816001600160a01b0316836001600160a01b031603611f6a5760405162461bcd60e51b815260206004820152601960248201527f4552433732313a20617070726f766520746f2063616c6c65720000000000000060448201526064016107d6565b6001600160a01b03838116600081815260056020908152604080832094871680845294825291829020805460ff191686151590811790915591519182527f17307eab39ab6107e8899845ad3d59bd9653f200f220920489ca2b5937696c31910160405180910390a3505050565b611fe2848484611bc0565b611fee84848484612203565b6118385760405162461bcd60e51b81526004016107d69061335c565b606061201582611a74565b6000828152600660205260408120805461202e9061311e565b80601f016020809104026020016040519081016040528092919081815260200182805461205a9061311e565b80156120a75780601f1061207c576101008083540402835291602001916120a7565b820191906000526020600020905b81548152906001019060200180831161208a57829003601f168201915b5050505050905060006120c560408051602081019091526000815290565b905080516000036120d7575092915050565b8151156121095780826040516020016120f19291906133ae565b60405160208183030381529060405292505050919050565b611bb884612304565b60006001600160e01b03198216632483248360e11b14806107a957506107a982612378565b612140816123c8565b600081815260066020526040902080546121599061311e565b159050610da0576000818152600660205260408120610da091612945565b612181828261154f565b6109995761218e8161245d565b61219983602061246f565b6040516020016121aa9291906133dd565b60408051601f198184030181529082905262461bcd60e51b82526107d691600401612b37565b6121da838361260a565b6121e76000848484612203565b610b665760405162461bcd60e51b81526004016107d69061335c565b60006001600160a01b0384163b156122f957604051630a85bd0160e11b81526001600160a01b0385169063150b7a0290612247903390899088908890600401613452565b6020604051808303816000875af1925050508015612282575060408051601f3d908101601f1916820190925261227f9181019061348f565b60015b6122df573d8080156122b0576040519150601f19603f3d011682016040523d82523d6000602084013e6122b5565b606091505b5080516000036122d75760405162461bcd60e51b81526004016107d69061335c565b805181602001fd5b6001600160e01b031916630a85bd0160e11b149050611bb8565b506001949350505050565b606061230f82611a74565b600061232660408051602081019091526000815290565b905060008151116123465760405180602001604052806000815250612371565b8061235084612795565b6040516020016123619291906133ae565b6040516020818303038152906040525b9392505050565b60006001600160e01b031982166380ac58cd60e01b14806123a957506001600160e01b03198216635b5e139f60e01b145b806107a957506301ffc9a760e01b6001600160e01b03198316146107a9565b60006123d382610fa2565b90506123de82610fa2565b600083815260046020908152604080832080546001600160a01b03199081169091556001600160a01b0385168085526003845282852080546000190190558785526002909352818420805490911690555192935084927fddf252ad1be2c89b69c2b068fc378daa952ba7f163c4a11628f55a4df523b3ef908390a45050565b60606107a96001600160a01b03831660145b6060600061247e8360026134ac565b612489906002613304565b6001600160401b038111156124a0576124a06129c6565b6040519080825280601f01601f1916602001820160405280156124ca576020820181803683370190505b509050600360fc1b816000815181106124e5576124e561301d565b60200101906001600160f81b031916908160001a905350600f60fb1b816001815181106125145761251461301d565b60200101906001600160f81b031916908160001a90535060006125388460026134ac565b612543906001613304565b90505b60018111156125bb576f181899199a1a9b1b9c1cb0b131b232b360811b85600f16601081106125775761257761301d565b1a60f81b82828151811061258d5761258d61301d565b60200101906001600160f81b031916908160001a90535060049490941c936125b4816134c3565b9050612546565b5083156123715760405162461bcd60e51b815260206004820181905260248201527f537472696e67733a20686578206c656e67746820696e73756666696369656e7460448201526064016107d6565b6001600160a01b0382166126605760405162461bcd60e51b815260206004820181905260248201527f4552433732313a206d696e7420746f20746865207a65726f206164647265737360448201526064016107d6565b6000818152600260205260409020546001600160a01b0316156126c55760405162461bcd60e51b815260206004820152601c60248201527f4552433732313a20746f6b656e20616c7265616479206d696e7465640000000060448201526064016107d6565b6000818152600260205260409020546001600160a01b03161561272a5760405162461bcd60e51b815260206004820152601c60248201527f4552433732313a20746f6b656e20616c7265616479206d696e7465640000000060448201526064016107d6565b6001600160a01b038216600081815260036020908152604080832080546001019055848352600290915280822080546001600160a01b0319168417905551839291907fddf252ad1be2c89b69c2b068fc378daa952ba7f163c4a11628f55a4df523b3ef908290a45050565b606060006127a283612827565b60010190506000816001600160401b038111156127c1576127c16129c6565b6040519080825280601f01601f1916602001820160405280156127eb576020820181803683370190505b5090508181016020015b600019016f181899199a1a9b1b9c1cb0b131b232b360811b600a86061a8153600a85049450846127f557509392505050565b60008072184f03e93ff9f4daa797ed6e38ed64bf6a1f0160401b83106128665772184f03e93ff9f4daa797ed6e38ed64bf6a1f0160401b830492506040015b6d04ee2d6d415b85acef81000000008310612892576d04ee2d6d415b85acef8100000000830492506020015b662386f26fc1000083106128b057662386f26fc10000830492506010015b6305f5e10083106128c8576305f5e100830492506008015b61271083106128dc57612710830492506004015b606483106128ee576064830492506002015b600a83106107a95760010192915050565b6040518060e001604052806000815260200160006001600160a01b0316815260200160608152602001600081526020016000815260200160008152602001600081525090565b5080546129519061311e565b6000825580601f10612961575050565b601f016020900490600052602060002090810190610da091905b8082111561298f576000815560010161297b565b5090565b6001600160e01b031981168114610da057600080fd5b6000602082840312156129bb57600080fd5b813561237181612993565b634e487b7160e01b600052604160045260246000fd5b60405160e081016001600160401b03811182821017156129fe576129fe6129c6565b60405290565b604051601f8201601f191681016001600160401b0381118282101715612a2c57612a2c6129c6565b604052919050565b600082601f830112612a4557600080fd5b813560206001600160401b03821115612a6057612a606129c6565b8160051b612a6f828201612a04565b9283528481018201928281019087851115612a8957600080fd5b83870192505b84831015612aa857823582529183019190830190612a8f565b979650505050505050565b600060208284031215612ac557600080fd5b81356001600160401b03811115612adb57600080fd5b611bb884828501612a34565b60005b83811015612b02578181015183820152602001612aea565b50506000910152565b60008151808452612b23816020860160208601612ae7565b601f01601f19169290920160200192915050565b6020815260006123716020830184612b0b565b600060208284031215612b5c57600080fd5b5035919050565b80356001600160a01b0381168114612b7a57600080fd5b919050565b60008060408385031215612b9257600080fd5b612b9b83612b63565b946020939093013593505050565b6020808252825182820181905260009190848201906040850190845b81811015612be157835183529284019291840191600101612bc5565b50909695505050505050565b600080600060608486031215612c0257600080fd5b612c0b84612b63565b9250612c1960208501612b63565b9150604084013590509250925092565b8051825260018060a01b0360208201511660208301526000604082015160e06040850152612c5a60e0850182612b0b565b9050606083015160608501526080830151608085015260a083015160a085015260c083015160c08501528091505092915050565b6020815260006123716020830184612c29565b60008060408385031215612cb457600080fd5b82359150612cc460208401612b63565b90509250929050565b60006001600160401b03821115612ce657612ce66129c6565b50601f01601f191660200190565b6000612d07612d0284612ccd565b612a04565b9050828152838383011115612d1b57600080fd5b828260208301376000602084830101529392505050565b600082601f830112612d4357600080fd5b61237183833560208501612cf4565b60008060408385031215612d6557600080fd5b82356001600160401b03811115612d7b57600080fd5b612d8785828601612d32565b95602094909401359450505050565b600060208284031215612da857600080fd5b61237182612b63565b60008060408385031215612dc457600080fd5b82356001600160401b0380821115612ddb57600080fd5b9084019060e08287031215612def57600080fd5b612df76129dc565b82358152612e0760208401612b63565b6020820152604083013582811115612e1e57600080fd5b612e2a88828601612d32565b604083015250606083013560608201526080830135608082015260a083013560a082015260c083013560c0820152809450505050602083013590509250929050565b60008060408385031215612e7f57600080fd5b82356001600160401b03811115612e9557600080fd5b612d8785828601612a34565b8015158114610da057600080fd5b60008060408385031215612ec257600080fd5b612ecb83612b63565b91506020830135612edb81612ea1565b809150509250929050565b6000602080830181845280855180835260408601915060408160051b870101925083870160005b82811015612f3b57603f19888603018452612f29858351612c29565b94509285019290850190600101612f0d565b5092979650505050505050565b60008060008060808587031215612f5e57600080fd5b612f6785612b63565b9350612f7560208601612b63565b92506040850135915060608501356001600160401b03811115612f9757600080fd5b8501601f81018713612fa857600080fd5b612fb787823560208401612cf4565b91505092959194509250565b60008060408385031215612fd657600080fd5b612fdf83612b63565b9150612cc460208401612b63565b60208082526016908201527521b0b63632b91034b9903737ba1030b71020b236b4b760511b604082015260600190565b634e487b7160e01b600052603260045260246000fd5b6001600160a01b039384168152919092166020820152604081019190915260600190565b60006020828403121561306957600080fd5b81516001600160401b0381111561307f57600080fd5b8201601f8101841361309057600080fd5b805161309e612d0282612ccd565b8181528560208385010111156130b357600080fd5b6130c4826020830160208601612ae7565b95945050505050565b6040815260006130e06040830185612c29565b90508260208301529392505050565b634e487b7160e01b600052601160045260246000fd5b600060018201613117576131176130ef565b5060010190565b600181811c9082168061313257607f821691505b60208210810361180057634e487b7160e01b600052602260045260246000fd5b6020808252602d908201527f4552433732313a2063616c6c6572206973206e6f7420746f6b656e206f776e6560408201526c1c881bdc88185c1c1c9bdd9959609a1b606082015260800190565b601f821115610b6657600081815260208120601f850160051c810160208610156131c65750805b601f850160051c820191505b818110156131e5578281556001016131d2565b505050505050565b81516001600160401b03811115613206576132066129c6565b61321a81613214845461311e565b8461319f565b602080601f83116001811461324f57600084156132375750858301515b600019600386901b1c1916600185901b1785556131e5565b600085815260208120601f198616915b8281101561327e5788860151825594840194600190910190840161325f565b508582101561329c5787850151600019600388901b60f8161c191681555b5050505050600190811b01905550565b6000602082840312156132be57600080fd5b5051919050565b6000602082840312156132d757600080fd5b815161237181612ea1565b6000826132ff57634e487b7160e01b600052601260045260246000fd5b500490565b808201808211156107a9576107a96130ef565b60208082526025908201527f4552433732313a207472616e736665722066726f6d20696e636f72726563742060408201526437bbb732b960d91b606082015260800190565b60208082526032908201527f4552433732313a207472616e7366657220746f206e6f6e20455243373231526560408201527131b2b4bb32b91034b6b83632b6b2b73a32b960711b606082015260800190565b600083516133c0818460208801612ae7565b8351908301906133d4818360208801612ae7565b01949350505050565b7f416363657373436f6e74726f6c3a206163636f756e7420000000000000000000815260008351613415816017850160208801612ae7565b7001034b99036b4b9b9b4b733903937b6329607d1b6017918401918201528351613446816028840160208801612ae7565b01602801949350505050565b6001600160a01b038581168252841660208201526040810183905260806060820181905260009061348590830184612b0b565b9695505050505050565b6000602082840312156134a157600080fd5b815161237181612993565b80820281158282048414176107a9576107a96130ef565b6000816134d2576134d26130ef565b50600019019056fea26469706673582212205017cdfffe4d8c271e51dae951d71c70bc423a45b6291c12665eefb19ac5944a64736f6c63430008120033",
  "linkReferences": {},
  "deployedLinkReferences": {}
}