{
  "_format": "hh-sol-artifact-1",
  "contractName": "GroovesBurnReward",
  "sourceName": "contracts/GroovesBurnReward.sol",
  "abi": [
    {
      "inputs": [
        {
          "internalType": "address",
          "name": "addr",
          "type": "address"
        }
      ],
      "stateMutability": "nonpayable",
      "type": "constructor"
    },
    {
      "anonymous": false,
      "inputs": [
        {
          "indexed": true,
          "internalType": "address",
          "name": "owner",
          "type": "address"
        },
        {
          "indexed": true,
          "internalType": "address",
          "name": "approved",
          "type": "address"
        },
        {
          "indexed": true,
          "internalType": "uint256",
          "name": "tokenId",
          "type": "uint256"
        }
      ],
      "name": "Approval",
      "type": "event"
    },
    {
      "anonymous": false,
      "inputs": [
        {
          "indexed": true,
          "internalType": "address",
          "name": "owner",
          "type": "address"
        },
        {
          "indexed": true,
          "internalType": "address",
          "name": "operator",
          "type": "address"
        },
        {
          "indexed": false,
          "internalType": "bool",
          "name": "approved",
          "type": "bool"
        }
      ],
      "name": "ApprovalForAll",
      "type": "event"
    },
    {
      "anonymous": false,
      "inputs": [
        {
          "indexed": false,
          "internalType": "uint256",
          "name": "_fromTokenId",
          "type": "uint256"
        },
        {
          "indexed": false,
          "internalType": "uint256",
          "name": "_toTokenId",
          "type": "uint256"
        }
      ],
      "name": "BatchMetadataUpdate",
      "type": "event"
    },
    {
      "anonymous": false,
      "inputs": [
        {
          "indexed": false,
          "internalType": "uint256",
          "name": "_tokenId",
          "type": "uint256"
        }
      ],
      "name": "MetadataUpdate",
      "type": "event"
    },
    {
      "anonymous": false,
      "inputs": [
        {
          "indexed": true,
          "internalType": "bytes32",
          "name": "role",
          "type": "bytes32"
        },
        {
          "indexed": true,
          "internalType": "bytes32",
          "name": "previousAdminRole",
          "type": "bytes32"
        },
        {
          "indexed": true,
          "internalType": "bytes32",
          "name": "newAdminRole",
          "type": "bytes32"
        }
      ],
      "name": "RoleAdminChanged",
      "type": "event"
    },
    {
      "anonymous": false,
      "inputs": [
        {
          "indexed": true,
          "internalType": "bytes32",
          "name": "role",
          "type": "bytes32"
        },
        {
          "indexed": true,
          "internalType": "address",
          "name": "account",
          "type": "address"
        },
        {
          "indexed": true,
          "internalType": "address",
          "name": "sender",
          "type": "address"
        }
      ],
      "name": "RoleGranted",
      "type": "event"
    },
    {
      "anonymous": false,
      "inputs": [
        {
          "indexed": true,
          "internalType": "bytes32",
          "name": "role",
          "type": "bytes32"
        },
        {
          "indexed": true,
          "internalType": "address",
          "name": "account",
          "type": "address"
        },
        {
          "indexed": true,
          "internalType": "address",
          "name": "sender",
          "type": "address"
        }
      ],
      "name": "RoleRevoked",
      "type": "event"
    },
    {
      "anonymous": false,
      "inputs": [
        {
          "indexed": true,
          "internalType": "address",
          "name": "from",
          "type": "address"
        },
        {
          "indexed": true,
          "internalType": "address",
          "name": "to",
          "type": "address"
        },
        {
          "indexed": true,
          "internalType": "uint256",
          "name": "tokenId",
          "type": "uint256"
        }
      ],
      "name": "Transfer",
      "type": "event"
    },
    {
      "inputs": [],
      "name": "DEFAULT_ADMIN_ROLE",
      "outputs": [
        {
          "internalType": "bytes32",
          "name": "",
          "type": "bytes32"
        }
      ],
      "stateMutability": "view",
      "type": "function"
    },
    {
      "inputs": [],
      "name": "MINTER_ROLE",
      "outputs": [
        {
          "internalType": "bytes32",
          "name": "",
          "type": "bytes32"
        }
      ],
      "stateMutability": "view",
      "type": "function"
    },
    {
      "inputs": [
        {
          "internalType": "uint256[]",
          "name": "tokenIds",
          "type": "uint256[]"
        }
      ],
      "name": "addAwardList",
      "outputs": [],
      "stateMutability": "nonpayable",
      "type": "function"
    },
    {
      "inputs": [],
      "name": "admin",
      "outputs": [
        {
          "internalType": "address",
          "name": "",
          "type": "address"
        }
      ],
      "stateMutability": "view",
      "type": "function"
    },
    {
      "inputs": [
        {
          "internalType": "address",
          "name": "to",
          "type": "address"
        },
        {
          "internalType": "uint256",
          "name": "tokenId",
          "type": "uint256"
        }
      ],
      "name": "approve",
      "outputs": [],
      "stateMutability": "nonpayable",
      "type": "function"
    },
    {
      "inputs": [
        {
          "internalType": "address",
          "name": "owner",
          "type": "address"
        }
      ],
      "name": "balanceOf",
      "outputs": [
        {
          "internalType": "uint256",
          "name": "",
          "type": "uint256"
        }
      ],
      "stateMutability": "view",
      "type": "function"
    },
    {
      "inputs": [
        {
          "internalType": "uint256",
          "name": "tokenId",
          "type": "uint256"
        }
      ],
      "name": "burn",
      "outputs": [],
      "stateMutability": "nonpayable",
      "type": "function"
    },
    {
      "inputs": [
        {
          "internalType": "uint256",
          "name": "tokenId",
          "type": "uint256"
        }
      ],
      "name": "burnNFT",
      "outputs": [],
      "stateMutability": "nonpayable",
      "type": "function"
    },
    {
      "inputs": [
        {
          "internalType": "uint256[]",
          "name": "tokenIds",
          "type": "uint256[]"
        },
        {
          "internalType": "uint256",
          "name": "id",
          "type": "uint256"
        }
      ],
      "name": "execBurnReward",
      "outputs": [],
      "stateMutability": "nonpayable",
      "type": "function"
    },
    {
      "inputs": [
        {
          "internalType": "uint256",
          "name": "tokenId",
          "type": "uint256"
        }
      ],
      "name": "getApproved",
      "outputs": [
        {
          "internalType": "address",
          "name": "",
          "type": "address"
        }
      ],
      "stateMutability": "view",
      "type": "function"
    },
    {
      "inputs": [],
      "name": "getCurrentId",
      "outputs": [
        {
          "internalType": "uint256",
          "name": "",
          "type": "uint256"
        }
      ],
      "stateMutability": "view",
      "type": "function"
    },
    {
      "inputs": [
        {
          "internalType": "bytes32",
          "name": "role",
          "type": "bytes32"
        }
      ],
      "name": "getRoleAdmin",
      "outputs": [
        {
          "internalType": "bytes32",
          "name": "",
          "type": "bytes32"
        }
      ],
      "stateMutability": "view",
      "type": "function"
    },
    {
      "inputs": [
        {
          "internalType": "uint256",
          "name": "tokenId",
          "type": "uint256"
        }
      ],
      "name": "getTokenForId",
      "outputs": [
        {
          "components": [
            {
              "internalType": "uint256",
              "name": "id",
              "type": "uint256"
            },
            {
              "internalType": "address",
              "name": "owner",
              "type": "address"
            },
            {
              "internalType": "string",
              "name": "tokenURI",
              "type": "string"
            },
            {
              "internalType": "uint256",
              "name": "paytype",
              "type": "uint256"
            },
            {
              "internalType": "uint256",
              "name": "price",
              "type": "uint256"
            },
            {
              "internalType": "uint256",
              "name": "status",
              "type": "uint256"
            },
            {
              "internalType": "uint256",
              "name": "time",
              "type": "uint256"
            }
          ],
          "internalType": "struct IGroovesNFT.Token",
          "name": "",
          "type": "tuple"
        }
      ],
      "stateMutability": "view",
      "type": "function"
    },
    {
      "inputs": [],
      "name": "getTokens",
      "outputs": [
        {
          "components": [
            {
              "internalType": "uint256",
              "name": "id",
              "type": "uint256"
            },
            {
              "internalType": "address",
              "name": "owner",
              "type": "address"
            },
            {
              "internalType": "string",
              "name": "tokenURI",
              "type": "string"
            },
            {
              "internalType": "uint256",
              "name": "paytype",
              "type": "uint256"
            },
            {
              "internalType": "uint256",
              "name": "price",
              "type": "uint256"
            },
            {
              "internalType": "uint256",
              "name": "status",
              "type": "uint256"
            },
            {
              "internalType": "uint256",
              "name": "time",
              "type": "uint256"
            }
          ],
          "internalType": "struct IGroovesNFT.Token[]",
          "name": "",
          "type": "tuple[]"
        }
      ],
      "stateMutability": "view",
      "type": "function"
    },
    {
      "inputs": [
        {
          "internalType": "bytes32",
          "name": "role",
          "type": "bytes32"
        },
        {
          "internalType": "address",
          "name": "account",
          "type": "address"
        }
      ],
      "name": "grantRole",
      "outputs": [],
      "stateMutability": "nonpayable",
      "type": "function"
    },
    {
      "inputs": [
        {
          "internalType": "bytes32",
          "name": "role",
          "type": "bytes32"
        },
        {
          "internalType": "address",
          "name": "account",
          "type": "address"
        }
      ],
      "name": "hasRole",
      "outputs": [
        {
          "internalType": "bool",
          "name": "",
          "type": "bool"
        }
      ],
      "stateMutability": "view",
      "type": "function"
    },
    {
      "inputs": [
        {
          "internalType": "address",
          "name": "owner",
          "type": "address"
        },
        {
          "internalType": "address",
          "name": "operator",
          "type": "address"
        }
      ],
      "name": "isApprovedForAll",
      "outputs": [
        {
          "internalType": "bool",
          "name": "",
          "type": "bool"
        }
      ],
      "stateMutability": "view",
      "type": "function"
    },
    {
      "inputs": [
        {
          "internalType": "string",
          "name": "tokenUri",
          "type": "string"
        },
        {
          "internalType": "uint256",
          "name": "quantity",
          "type": "uint256"
        }
      ],
      "name": "mintNFT",
      "outputs": [],
      "stateMutability": "nonpayable",
      "type": "function"
    },
    {
      "inputs": [],
      "name": "name",
      "outputs": [
        {
          "internalType": "string",
          "name": "",
          "type": "string"
        }
      ],
      "stateMutability": "view",
      "type": "function"
    },
    {
      "inputs": [
        {
          "internalType": "uint256",
          "name": "tokenId",
          "type": "uint256"
        }
      ],
      "name": "ownerOf",
      "outputs": [
        {
          "internalType": "address",
          "name": "",
          "type": "address"
        }
      ],
      "stateMutability": "view",
      "type": "function"
    },
    {
      "inputs": [],
      "name": "payToken",
      "outputs": [
        {
          "internalType": "contract IERC20",
          "name": "",
          "type": "address"
        }
      ],
      "stateMutability": "view",
      "type": "function"
    },
    {
      "inputs": [
        {
          "internalType": "uint256[]",
          "name": "tokenIds",
          "type": "uint256[]"
        }
      ],
      "name": "removeAwardList",
      "outputs": [],
      "stateMutability": "nonpayable",
      "type": "function"
    },
    {
      "inputs": [
        {
          "internalType": "bytes32",
          "name": "role",
          "type": "bytes32"
        },
        {
          "internalType": "address",
          "name": "account",
          "type": "address"
        }
      ],
      "name": "renounceRole",
      "outputs": [],
      "stateMutability": "nonpayable",
      "type": "function"
    },
    {
      "inputs": [
        {
          "internalType": "bytes32",
          "name": "role",
          "type": "bytes32"
        },
        {
          "internalType": "address",
          "name": "account",
          "type": "address"
        }
      ],
      "name": "revokeRole",
      "outputs": [],
      "stateMutability": "nonpayable",
      "type": "function"
    },
    {
      "inputs": [
        {
          "internalType": "address",
          "name": "from",
          "type": "address"
        },
        {
          "internalType": "address",
          "name": "to",
          "type": "address"
        },
        {
          "internalType": "uint256",
          "name": "tokenId",
          "type": "uint256"
        }
      ],
      "name": "safeTransferFrom",
      "outputs": [],
      "stateMutability": "nonpayable",
      "type": "function"
    },
    {
      "inputs": [
        {
          "internalType": "address",
          "name": "from",
          "type": "address"
        },
        {
          "internalType": "address",
          "name": "to",
          "type": "address"
        },
        {
          "internalType": "uint256",
          "name": "tokenId",
          "type": "uint256"
        },
        {
          "internalType": "bytes",
          "name": "data",
          "type": "bytes"
        }
      ],
      "name": "safeTransferFrom",
      "outputs": [],
      "stateMutability": "nonpayable",
      "type": "function"
    },
    {
      "inputs": [
        {
          "internalType": "address",
          "name": "operator",
          "type": "address"
        },
        {
          "internalType": "bool",
          "name": "approved",
          "type": "bool"
        }
      ],
      "name": "setApprovalForAll",
      "outputs": [],
      "stateMutability": "nonpayable",
      "type": "function"
    },
    {
      "inputs": [
        {
          "components": [
            {
              "internalType": "uint256",
              "name": "id",
              "type": "uint256"
            },
            {
              "internalType": "address",
              "name": "owner",
              "type": "address"
            },
            {
              "internalType": "string",
              "name": "tokenURI",
              "type": "string"
            },
            {
              "internalType": "uint256",
              "name": "paytype",
              "type": "uint256"
            },
            {
              "internalType": "uint256",
              "name": "price",
              "type": "uint256"
            },
            {
              "internalType": "uint256",
              "name": "status",
              "type": "uint256"
            },
            {
              "internalType": "uint256",
              "name": "time",
              "type": "uint256"
            }
          ],
          "internalType": "struct IGroovesNFT.Token",
          "name": "t",
          "type": "tuple"
        },
        {
          "internalType": "uint256",
          "name": "tokenId",
          "type": "uint256"
        }
      ],
      "name": "setToken",
      "outputs": [],
      "stateMutability": "nonpayable",
      "type": "function"
    },
    {
      "inputs": [
        {
          "internalType": "bytes4",
          "name": "interfaceId",
          "type": "bytes4"
        }
      ],
      "name": "supportsInterface",
      "outputs": [
        {
          "internalType": "bool",
          "name": "",
          "type": "bool"
        }
      ],
      "stateMutability": "view",
      "type": "function"
    },
    {
      "inputs": [],
      "name": "symbol",
      "outputs": [
        {
          "internalType": "string",
          "name": "",
          "type": "string"
        }
      ],
      "stateMutability": "view",
      "type": "function"
    },
    {
      "inputs": [
        {
          "internalType": "uint256",
          "name": "tokenId",
          "type": "uint256"
        }
      ],
      "name": "tokenURI",
      "outputs": [
        {
          "internalType": "string",
          "name": "",
          "type": "string"
        }
      ],
      "stateMutability": "view",
      "type": "function"
    },
    {
      "inputs": [
        {
          "internalType": "address",
          "name": "from",
          "type": "address"
        },
        {
          "internalType": "address",
          "name": "to",
          "type": "address"
        },
        {
          "internalType": "uint256",
          "name": "tokenId",
          "type": "uint256"
        }
      ],
      "name": "transferFrom",
      "outputs": [],
      "stateMutability": "nonpayable",
      "type": "function"
    },
    {
      "inputs": [
        {
          "internalType": "address",
          "name": "from",
          "type": "address"
        },
        {
          "internalType": "address",
          "name": "to",
          "type": "address"
        },
        {
          "internalType": "uint256",
          "name": "tokenId",
          "type": "uint256"
        }
      ],
      "name": "transferNFT",
      "outputs": [],
      "stateMutability": "nonpayable",
      "type": "function"
    }
  ],
  "bytecode": "0x6080604052600880546001600160a01b03199081167352e087107876cfd8b460160cca5074956d9ab27e179091556009805490911673494332cffc6ca402547f4485c177622abec370041790553480156200005957600080fd5b506040516200330a3803806200330a8339810160408190526200007c91620001d3565b6040518060400160405280600a81526020016911dc9bdbdd995cd3919560b21b8152506040518060400160405280600481526020016311d3919560e21b8152508160009081620000cd9190620002aa565b506001620000dc8282620002aa565b50620000ee915060009050336200012e565b60095462000108906000906001600160a01b03166200012e565b600c80546001600160a01b0319166001600160a01b039290921691909117905562000376565b60008281526007602090815260408083206001600160a01b038516845290915290205460ff16620001cf5760008281526007602090815260408083206001600160a01b03851684529091529020805460ff191660011790556200018e3390565b6001600160a01b0316816001600160a01b0316837f2f8788117e7eff1d82e926ec794901d17c78024a50270940304540a733656f0d60405160405180910390a45b5050565b600060208284031215620001e657600080fd5b81516001600160a01b0381168114620001fe57600080fd5b9392505050565b634e487b7160e01b600052604160045260246000fd5b600181811c908216806200023057607f821691505b6020821081036200025157634e487b7160e01b600052602260045260246000fd5b50919050565b601f821115620002a557600081815260208120601f850160051c81016020861015620002805750805b601f850160051c820191505b81811015620002a1578281556001016200028c565b5050505b505050565b81516001600160401b03811115620002c657620002c662000205565b620002de81620002d784546200021b565b8462000257565b602080601f831160018114620003165760008415620002fd5750858301515b600019600386901b1c1916600185901b178555620002a1565b600085815260208120601f198616915b82811015620003475788860151825594840194600190910190840162000326565b5085821015620003665787850151600019600388901b60f8161c191681555b5050505050600190811b01905550565b612f8480620003866000396000f3fe608060405234801561001057600080fd5b50600436106101fb5760003560e01c80636c1438621161011a578063a22cb465116100ad578063c87b56dd1161007c578063c87b56dd14610451578063d539139314610464578063d547741f1461048b578063e985e9c51461049e578063f851a440146104da57600080fd5b8063a22cb46514610403578063aa6ca80814610416578063b88d4fde1461042b578063bc00807f1461043e57600080fd5b8063920b3434116100e9578063920b3434146103cd57806395d89b41146103e057806396336b30146103e8578063a217fddf146103fb57600080fd5b80636c1438621461038c57806370a082311461039457806378fa91a6146103a757806391d14854146103ba57600080fd5b80632890e0d71161019257806342966c681161016157806342966c68146103405780635afa3a72146103535780636352211e1461036657806369e9cae11461037957600080fd5b80632890e0d7146102f45780632f2ff15d1461030757806336568abe1461031a57806342842e0e1461032d57600080fd5b80632183eb22116101ce5780632183eb221461027d57806323b872dd146102905780632444a8a6146102a3578063248a9ca3146102c357600080fd5b806301ffc9a71461020057806306fdde0314610228578063081812fc1461023d578063095ea7b314610268575b600080fd5b61021361020e366004612411565b6104ed565b60405190151581526020015b60405180910390f35b6102306104fe565b60405161021f919061247e565b61025061024b366004612491565b610590565b6040516001600160a01b03909116815260200161021f565b61027b6102763660046124cf565b6105b7565b005b61027b61028b3660046125e8565b6106d1565b61027b61029e36600461262c565b6109dd565b6102b66102b1366004612491565b610a0f565b60405161021f91906126d2565b6102e66102d1366004612491565b60009081526007602052604090206001015490565b60405190815260200161021f565b61027b610302366004612491565b610b12565b61027b6103153660046126e5565b610b1e565b61027b6103283660046126e5565b610b43565b61027b61033b36600461262c565b610bc1565b61027b61034e366004612491565b610bdc565b61027b61036136600461279a565b610c01565b610250610374366004612491565b610d21565b61027b61038736600461262c565b610a04565b6102e6610d81565b6102e66103a23660046127cf565b610d91565b61027b6103b53660046127ec565b610e17565b6102136103c83660046126e5565b610e97565b61027b6103db3660046128a7565b610ec2565b6102306110a7565b600854610250906001600160a01b031681565b6102e6600081565b61027b6104113660046128db565b6110b6565b61041e6110c1565b60405161021f919061290e565b61027b610439366004612970565b61126a565b61027b61044c3660046128a7565b6112a2565b61023061045f366004612491565b611487565b6102e67f9f2df0fed2c77648de5860a4cc508cd0818c85b8b8a1ab4ceeef8d981c8956a681565b61027b6104993660046126e5565b611492565b6102136104ac3660046129ef565b6001600160a01b03918216600090815260056020908152604080832093909416825291909152205460ff1690565b600954610250906001600160a01b031681565b60006104f8826114b7565b92915050565b60606000805461050d90612a1d565b80601f016020809104026020016040519081016040528092919081815260200182805461053990612a1d565b80156105865780601f1061055b57610100808354040283529160200191610586565b820191906000526020600020905b81548152906001019060200180831161056957829003601f168201915b5050505050905090565b600061059b826114dc565b506000908152600460205260409020546001600160a01b031690565b60006105c282610d21565b9050806001600160a01b0316836001600160a01b0316036106345760405162461bcd60e51b815260206004820152602160248201527f4552433732313a20617070726f76616c20746f2063757272656e74206f776e656044820152603960f91b60648201526084015b60405180910390fd5b336001600160a01b0382161480610650575061065081336104ac565b6106c25760405162461bcd60e51b815260206004820152603d60248201527f4552433732313a20617070726f76652063616c6c6572206973206e6f7420746f60448201527f6b656e206f776e6572206f7220617070726f76656420666f7220616c6c000000606482015260840161062b565b6106cc838361153b565b505050565b815160005b818110156108595760008482815181106106f2576106f2612a51565b6020908102919091010151600c54604051631222545360e11b8152600481018390529192506000916001600160a01b0390911690632444a8a690602401600060405180830381865afa15801561074c573d6000803e3d6000fd5b505050506040513d6000823e601f3d908101601f191682016040526107749190810190612ab7565b600a60a08201524260c0820152600c54604051633c7d48d360e11b81529192506001600160a01b0316906378fa91a6906107b49084908690600401612b69565b600060405180830381600087803b1580156107ce57600080fd5b505af11580156107e2573d6000803e3d6000fd5b5050600c54604051632890e0d760e01b8152600481018690526001600160a01b039091169250632890e0d79150602401600060405180830381600087803b15801561082c57600080fd5b505af1158015610840573d6000803e3d6000fd5b505050505050808061085190612ba1565b9150506106d6565b50600c546040516369e9cae160e01b8152306004820152336024820152604481018490526001600160a01b03909116906369e9cae190606401600060405180830381600087803b1580156108ac57600080fd5b505af11580156108c0573d6000803e3d6000fd5b50506040805160e081018252858152336020820152600c54825163c87b56dd60e01b81526004810188905260009550919350918301916001600160a01b03169063c87b56dd90602401600060405180830381865afa158015610926573d6000803e3d6000fd5b505050506040513d6000823e601f3d908101601f1916820160405261094e9190810190612bba565b81526000602082018190526040808301919091526009606083015242608090920191909152600c549051633c7d48d360e11b81529192506001600160a01b0316906378fa91a6906109a59084908790600401612b69565b600060405180830381600087803b1580156109bf57600080fd5b505af11580156109d3573d6000803e3d6000fd5b5050505050505050565b6109e8335b826115a9565b610a045760405162461bcd60e51b815260040161062b90612bee565b6106cc838383611628565b610a17612367565b6000828152600a6020908152604091829020825160e0810184528154815260018201546001600160a01b0316928101929092526002810180549293919291840191610a6190612a1d565b80601f0160208091040260200160405190810160405280929190818152602001828054610a8d90612a1d565b8015610ada5780601f10610aaf57610100808354040283529160200191610ada565b820191906000526020600020905b815481529060010190602001808311610abd57829003601f168201915b505050505081526020016003820154815260200160048201548152602001600582015481526020016006820154815250509050919050565b610b1b8161178c565b50565b600082815260076020526040902060010154610b3981611795565b6106cc838361179f565b6001600160a01b0381163314610bb35760405162461bcd60e51b815260206004820152602f60248201527f416363657373436f6e74726f6c3a2063616e206f6e6c792072656e6f756e636560448201526e103937b632b9903337b91039b2b63360891b606482015260840161062b565b610bbd8282611825565b5050565b6106cc8383836040518060200160405280600081525061126a565b610be5336109e2565b610b125760405162461bcd60e51b815260040161062b90612bee565b610c0c600033610e97565b610c285760405162461bcd60e51b815260040161062b90612c3b565b60005b818110156106cc57610c41600b80546001019055565b6000610c4c600b5490565b9050610c58338261188c565b610c6281856118a6565b6040805160e08101825282815233602080830191825282840188815260006060850181905260808501819052600160a086018190524260c0870152878252600a9093529490942083518155915190820180546001600160a01b0319166001600160a01b0390921691909117905591519091906002820190610ce39082612cb9565b50606082015160038201556080820151600482015560a0820151600582015560c0909101516006909101555080610d1981612ba1565b915050610c2b565b6000818152600260205260408120546001600160a01b0316806104f85760405162461bcd60e51b8152602060048201526018602482015277115490cdcc8c4e881a5b9d985b1a59081d1bdad95b88125160421b604482015260640161062b565b6000610d8c600b5490565b905090565b60006001600160a01b038216610dfb5760405162461bcd60e51b815260206004820152602960248201527f4552433732313a2061646472657373207a65726f206973206e6f7420612076616044820152683634b21037bbb732b960b91b606482015260840161062b565b506001600160a01b031660009081526003602052604090205490565b6000818152600a602090815260409182902084518155908401516001820180546001600160a01b0319166001600160a01b03909216919091179055908301518391906002820190610e689082612cb9565b50606082015160038201556080820151600482015560a0820151600582015560c0909101516006909101555050565b60009182526007602090815260408084206001600160a01b0393909316845291905290205460ff1690565b610ecd600033610e97565b610ee95760405162461bcd60e51b815260040161062b90612c3b565b60005b8151811015610bbd576000828281518110610f0957610f09612a51565b6020908102919091010151600c546040516369e9cae160e01b8152336004820152306024820152604481018390529192506001600160a01b0316906369e9cae190606401600060405180830381600087803b158015610f6757600080fd5b505af1158015610f7b573d6000803e3d6000fd5b50506040805160e081018252848152306020820152600c54825163c87b56dd60e01b81526004810187905260009550919350918301916001600160a01b03169063c87b56dd90602401600060405180830381865afa158015610fe1573d6000803e3d6000fd5b505050506040513d6000823e601f3d908101601f191682016040526110099190810190612bba565b81526000602082018190526040808301919091526008606083015242608090920191909152600c549051633c7d48d360e11b81529192506001600160a01b0316906378fa91a6906110609084908690600401612b69565b600060405180830381600087803b15801561107a57600080fd5b505af115801561108e573d6000803e3d6000fd5b505050505050808061109f90612ba1565b915050610eec565b60606001805461050d90612a1d565b610bbd338383611971565b606060006110ce600b5490565b6001600160401b038111156110e5576110e56124fb565b60405190808252806020026020018201604052801561111e57816020015b61110b612367565b8152602001906001900390816111035790505b50905060005b600b54811015611264576000600a8161113e846001612d78565b81526020808201929092526040908101600020815160e0810183528154815260018201546001600160a01b031693810193909352600281018054919450849284019161118990612a1d565b80601f01602080910402602001604051908101604052809291908181526020018280546111b590612a1d565b80156112025780601f106111d757610100808354040283529160200191611202565b820191906000526020600020905b8154815290600101906020018083116111e557829003601f168201915b5050505050815260200160038201548152602001600482015481526020016005820154815260200160068201548152505083838151811061124557611245612a51565b602002602001018190525050808061125c90612ba1565b915050611124565b50919050565b61127433836115a9565b6112905760405162461bcd60e51b815260040161062b90612bee565b61129c84848484611a3f565b50505050565b6112ad600033610e97565b6112c95760405162461bcd60e51b815260040161062b90612c3b565b60005b8151811015610bbd5760008282815181106112e9576112e9612a51565b6020908102919091010151600c546040516369e9cae160e01b8152306004820152336024820152604481018390529192506001600160a01b0316906369e9cae190606401600060405180830381600087803b15801561134757600080fd5b505af115801561135b573d6000803e3d6000fd5b50506040805160e081018252848152336020820152600c54825163c87b56dd60e01b81526004810187905260009550919350918301916001600160a01b03169063c87b56dd90602401600060405180830381865afa1580156113c1573d6000803e3d6000fd5b505050506040513d6000823e601f3d908101601f191682016040526113e99190810190612bba565b81526000602082018190526040808301919091526001606083015242608090920191909152600c549051633c7d48d360e11b81529192506001600160a01b0316906378fa91a6906114409084908690600401612b69565b600060405180830381600087803b15801561145a57600080fd5b505af115801561146e573d6000803e3d6000fd5b505050505050808061147f90612ba1565b9150506112cc565b60606104f882611a72565b6000828152600760205260409020600101546114ad81611795565b6106cc8383611825565b60006001600160e01b03198216637965db0b60e01b14806104f857506104f882611b7a565b6000818152600260205260409020546001600160a01b0316610b1b5760405162461bcd60e51b8152602060048201526018602482015277115490cdcc8c4e881a5b9d985b1a59081d1bdad95b88125160421b604482015260640161062b565b600081815260046020526040902080546001600160a01b0319166001600160a01b038416908117909155819061157082610d21565b6001600160a01b03167f8c5be1e5ebec7d5bd14f71427d1e84f3dd0314c0f7b2291e5b200ac8c7c3b92560405160405180910390a45050565b6000806115b583610d21565b9050806001600160a01b0316846001600160a01b031614806115fc57506001600160a01b0380821660009081526005602090815260408083209388168352929052205460ff165b806116205750836001600160a01b031661161584610590565b6001600160a01b0316145b949350505050565b826001600160a01b031661163b82610d21565b6001600160a01b0316146116615760405162461bcd60e51b815260040161062b90612d8b565b6001600160a01b0382166116c35760405162461bcd60e51b8152602060048201526024808201527f4552433732313a207472616e7366657220746f20746865207a65726f206164646044820152637265737360e01b606482015260840161062b565b826001600160a01b03166116d682610d21565b6001600160a01b0316146116fc5760405162461bcd60e51b815260040161062b90612d8b565b600081815260046020908152604080832080546001600160a01b03199081169091556001600160a01b0387811680865260038552838620805460001901905590871680865283862080546001019055868652600290945282852080549092168417909155905184937fddf252ad1be2c89b69c2b068fc378daa952ba7f163c4a11628f55a4df523b3ef91a4505050565b610b1b81611b9f565b610b1b8133611bdf565b6117a98282610e97565b610bbd5760008281526007602090815260408083206001600160a01b03851684529091529020805460ff191660011790556117e13390565b6001600160a01b0316816001600160a01b0316837f2f8788117e7eff1d82e926ec794901d17c78024a50270940304540a733656f0d60405160405180910390a45050565b61182f8282610e97565b15610bbd5760008281526007602090815260408083206001600160a01b0385168085529252808320805460ff1916905551339285917ff6391f5c32d9c69d2a47ea670b442974b53935d1edc7fd64eb21e047a839171b9190a45050565b610bbd828260405180602001604052806000815250611c38565b6000828152600260205260409020546001600160a01b03166119215760405162461bcd60e51b815260206004820152602e60248201527f45524337323155524953746f726167653a2055524920736574206f66206e6f6e60448201526d32bc34b9ba32b73a103a37b5b2b760911b606482015260840161062b565b60008281526006602052604090206119398282612cb9565b506040518281527ff8e1a15aba9398e019f0b49df1a4fde98ee17ae345cb5f6b5e2c27f5033e8ce79060200160405180910390a15050565b816001600160a01b0316836001600160a01b0316036119d25760405162461bcd60e51b815260206004820152601960248201527f4552433732313a20617070726f766520746f2063616c6c657200000000000000604482015260640161062b565b6001600160a01b03838116600081815260056020908152604080832094871680845294825291829020805460ff191686151590811790915591519182527f17307eab39ab6107e8899845ad3d59bd9653f200f220920489ca2b5937696c31910160405180910390a3505050565b611a4a848484611628565b611a5684848484611c6b565b61129c5760405162461bcd60e51b815260040161062b90612dd0565b6060611a7d826114dc565b60008281526006602052604081208054611a9690612a1d565b80601f0160208091040260200160405190810160405280929190818152602001828054611ac290612a1d565b8015611b0f5780601f10611ae457610100808354040283529160200191611b0f565b820191906000526020600020905b815481529060010190602001808311611af257829003601f168201915b505050505090506000611b2d60408051602081019091526000815290565b90508051600003611b3f575092915050565b815115611b71578082604051602001611b59929190612e22565b60405160208183030381529060405292505050919050565b61162084611d6c565b60006001600160e01b03198216632483248360e11b14806104f857506104f882611de0565b611ba881611e30565b60008181526006602052604090208054611bc190612a1d565b159050610b1b576000818152600660205260408120610b1b916123ad565b611be98282610e97565b610bbd57611bf681611ec5565b611c01836020611ed7565b604051602001611c12929190612e51565b60408051601f198184030181529082905262461bcd60e51b825261062b9160040161247e565b611c428383612072565b611c4f6000848484611c6b565b6106cc5760405162461bcd60e51b815260040161062b90612dd0565b60006001600160a01b0384163b15611d6157604051630a85bd0160e11b81526001600160a01b0385169063150b7a0290611caf903390899088908890600401612ec6565b6020604051808303816000875af1925050508015611cea575060408051601f3d908101601f19168201909252611ce791810190612f03565b60015b611d47573d808015611d18576040519150601f19603f3d011682016040523d82523d6000602084013e611d1d565b606091505b508051600003611d3f5760405162461bcd60e51b815260040161062b90612dd0565b805181602001fd5b6001600160e01b031916630a85bd0160e11b149050611620565b506001949350505050565b6060611d77826114dc565b6000611d8e60408051602081019091526000815290565b90506000815111611dae5760405180602001604052806000815250611dd9565b80611db8846121fd565b604051602001611dc9929190612e22565b6040516020818303038152906040525b9392505050565b60006001600160e01b031982166380ac58cd60e01b1480611e1157506001600160e01b03198216635b5e139f60e01b145b806104f857506301ffc9a760e01b6001600160e01b03198316146104f8565b6000611e3b82610d21565b9050611e4682610d21565b600083815260046020908152604080832080546001600160a01b03199081169091556001600160a01b0385168085526003845282852080546000190190558785526002909352818420805490911690555192935084927fddf252ad1be2c89b69c2b068fc378daa952ba7f163c4a11628f55a4df523b3ef908390a45050565b60606104f86001600160a01b03831660145b60606000611ee6836002612f20565b611ef1906002612d78565b6001600160401b03811115611f0857611f086124fb565b6040519080825280601f01601f191660200182016040528015611f32576020820181803683370190505b509050600360fc1b81600081518110611f4d57611f4d612a51565b60200101906001600160f81b031916908160001a905350600f60fb1b81600181518110611f7c57611f7c612a51565b60200101906001600160f81b031916908160001a9053506000611fa0846002612f20565b611fab906001612d78565b90505b6001811115612023576f181899199a1a9b1b9c1cb0b131b232b360811b85600f1660108110611fdf57611fdf612a51565b1a60f81b828281518110611ff557611ff5612a51565b60200101906001600160f81b031916908160001a90535060049490941c9361201c81612f37565b9050611fae565b508315611dd95760405162461bcd60e51b815260206004820181905260248201527f537472696e67733a20686578206c656e67746820696e73756666696369656e74604482015260640161062b565b6001600160a01b0382166120c85760405162461bcd60e51b815260206004820181905260248201527f4552433732313a206d696e7420746f20746865207a65726f2061646472657373604482015260640161062b565b6000818152600260205260409020546001600160a01b03161561212d5760405162461bcd60e51b815260206004820152601c60248201527f4552433732313a20746f6b656e20616c7265616479206d696e74656400000000604482015260640161062b565b6000818152600260205260409020546001600160a01b0316156121925760405162461bcd60e51b815260206004820152601c60248201527f4552433732313a20746f6b656e20616c7265616479206d696e74656400000000604482015260640161062b565b6001600160a01b038216600081815260036020908152604080832080546001019055848352600290915280822080546001600160a01b0319168417905551839291907fddf252ad1be2c89b69c2b068fc378daa952ba7f163c4a11628f55a4df523b3ef908290a45050565b6060600061220a8361228f565b60010190506000816001600160401b03811115612229576122296124fb565b6040519080825280601f01601f191660200182016040528015612253576020820181803683370190505b5090508181016020015b600019016f181899199a1a9b1b9c1cb0b131b232b360811b600a86061a8153600a850494508461225d57509392505050565b60008072184f03e93ff9f4daa797ed6e38ed64bf6a1f0160401b83106122ce5772184f03e93ff9f4daa797ed6e38ed64bf6a1f0160401b830492506040015b6d04ee2d6d415b85acef810000000083106122fa576d04ee2d6d415b85acef8100000000830492506020015b662386f26fc10000831061231857662386f26fc10000830492506010015b6305f5e1008310612330576305f5e100830492506008015b612710831061234457612710830492506004015b60648310612356576064830492506002015b600a83106104f85760010192915050565b6040518060e001604052806000815260200160006001600160a01b0316815260200160608152602001600081526020016000815260200160008152602001600081525090565b5080546123b990612a1d565b6000825580601f106123c9575050565b601f016020900490600052602060002090810190610b1b91905b808211156123f757600081556001016123e3565b5090565b6001600160e01b031981168114610b1b57600080fd5b60006020828403121561242357600080fd5b8135611dd9816123fb565b60005b83811015612449578181015183820152602001612431565b50506000910152565b6000815180845261246a81602086016020860161242e565b601f01601f19169290920160200192915050565b602081526000611dd96020830184612452565b6000602082840312156124a357600080fd5b5035919050565b6001600160a01b0381168114610b1b57600080fd5b80356124ca816124aa565b919050565b600080604083850312156124e257600080fd5b82356124ed816124aa565b946020939093013593505050565b634e487b7160e01b600052604160045260246000fd5b60405160e081016001600160401b0381118282101715612533576125336124fb565b60405290565b604051601f8201601f191681016001600160401b0381118282101715612561576125616124fb565b604052919050565b600082601f83011261257a57600080fd5b813560206001600160401b03821115612595576125956124fb565b8160051b6125a4828201612539565b92835284810182019282810190878511156125be57600080fd5b83870192505b848310156125dd578235825291830191908301906125c4565b979650505050505050565b600080604083850312156125fb57600080fd5b82356001600160401b0381111561261157600080fd5b61261d85828601612569565b95602094909401359450505050565b60008060006060848603121561264157600080fd5b833561264c816124aa565b9250602084013561265c816124aa565b929592945050506040919091013590565b8051825260018060a01b0360208201511660208301526000604082015160e0604085015261269e60e0850182612452565b9050606083015160608501526080830151608085015260a083015160a085015260c083015160c08501528091505092915050565b602081526000611dd9602083018461266d565b600080604083850312156126f857600080fd5b82359150602083013561270a816124aa565b809150509250929050565b60006001600160401b0382111561272e5761272e6124fb565b50601f01601f191660200190565b600061274f61274a84612715565b612539565b905082815283838301111561276357600080fd5b828260208301376000602084830101529392505050565b600082601f83011261278b57600080fd5b611dd98383356020850161273c565b600080604083850312156127ad57600080fd5b82356001600160401b038111156127c357600080fd5b61261d8582860161277a565b6000602082840312156127e157600080fd5b8135611dd9816124aa565b600080604083850312156127ff57600080fd5b82356001600160401b038082111561281657600080fd5b9084019060e0828703121561282a57600080fd5b612832612511565b82358152612842602084016124bf565b602082015260408301358281111561285957600080fd5b6128658882860161277a565b604083015250606083013560608201526080830135608082015260a083013560a082015260c083013560c0820152809450505050602083013590509250929050565b6000602082840312156128b957600080fd5b81356001600160401b038111156128cf57600080fd5b61162084828501612569565b600080604083850312156128ee57600080fd5b82356128f9816124aa565b91506020830135801515811461270a57600080fd5b6000602080830181845280855180835260408601915060408160051b870101925083870160005b8281101561296357603f1988860301845261295185835161266d565b94509285019290850190600101612935565b5092979650505050505050565b6000806000806080858703121561298657600080fd5b8435612991816124aa565b935060208501356129a1816124aa565b92506040850135915060608501356001600160401b038111156129c357600080fd5b8501601f810187136129d457600080fd5b6129e38782356020840161273c565b91505092959194509250565b60008060408385031215612a0257600080fd5b8235612a0d816124aa565b9150602083013561270a816124aa565b600181811c90821680612a3157607f821691505b60208210810361126457634e487b7160e01b600052602260045260246000fd5b634e487b7160e01b600052603260045260246000fd5b80516124ca816124aa565b600082601f830112612a8357600080fd5b8151612a9161274a82612715565b818152846020838601011115612aa657600080fd5b61162082602083016020870161242e565b600060208284031215612ac957600080fd5b81516001600160401b0380821115612ae057600080fd5b9083019060e08286031215612af457600080fd5b612afc612511565b82518152612b0c60208401612a67565b6020820152604083015182811115612b2357600080fd5b612b2f87828601612a72565b604083015250606083015160608201526080830151608082015260a083015160a082015260c083015160c082015280935050505092915050565b604081526000612b7c604083018561266d565b90508260208301529392505050565b634e487b7160e01b600052601160045260246000fd5b600060018201612bb357612bb3612b8b565b5060010190565b600060208284031215612bcc57600080fd5b81516001600160401b03811115612be257600080fd5b61162084828501612a72565b6020808252602d908201527f4552433732313a2063616c6c6572206973206e6f7420746f6b656e206f776e6560408201526c1c881bdc88185c1c1c9bdd9959609a1b606082015260800190565b60208082526016908201527521b0b63632b91034b9903737ba1030b71020b236b4b760511b604082015260600190565b601f8211156106cc57600081815260208120601f850160051c81016020861015612c925750805b601f850160051c820191505b81811015612cb157828155600101612c9e565b505050505050565b81516001600160401b03811115612cd257612cd26124fb565b612ce681612ce08454612a1d565b84612c6b565b602080601f831160018114612d1b5760008415612d035750858301515b600019600386901b1c1916600185901b178555612cb1565b600085815260208120601f198616915b82811015612d4a57888601518255948401946001909101908401612d2b565b5085821015612d685787850151600019600388901b60f8161c191681555b5050505050600190811b01905550565b808201808211156104f8576104f8612b8b565b60208082526025908201527f4552433732313a207472616e736665722066726f6d20696e636f72726563742060408201526437bbb732b960d91b606082015260800190565b60208082526032908201527f4552433732313a207472616e7366657220746f206e6f6e20455243373231526560408201527131b2b4bb32b91034b6b83632b6b2b73a32b960711b606082015260800190565b60008351612e3481846020880161242e565b835190830190612e4881836020880161242e565b01949350505050565b7f416363657373436f6e74726f6c3a206163636f756e7420000000000000000000815260008351612e8981601785016020880161242e565b7001034b99036b4b9b9b4b733903937b6329607d1b6017918401918201528351612eba81602884016020880161242e565b01602801949350505050565b6001600160a01b0385811682528416602082015260408101839052608060608201819052600090612ef990830184612452565b9695505050505050565b600060208284031215612f1557600080fd5b8151611dd9816123fb565b80820281158282048414176104f8576104f8612b8b565b600081612f4657612f46612b8b565b50600019019056fea26469706673582212203aab4efb2466ae5b717b8871deb8a76720005bda2f8cb10cdc47ab43a0f29fa364736f6c63430008120033",
  "linkReferences": {},
  "deployedLinkReferences": {}
}