{
  "_format": "hh-sol-artifact-1",
  "contractName": "GroovesListing",
  "sourceName": "contracts/GroovesListing.sol",
  "abi": [
    {
      "inputs": [
        {
          "internalType": "address",
          "name": "addr",
          "type": "address"
        }
      ],
      "stateMutability": "nonpayable",
      "type": "constructor"
    },
    {
      "anonymous": false,
      "inputs": [
        {
          "indexed": true,
          "internalType": "address",
          "name": "owner",
          "type": "address"
        },
        {
          "indexed": true,
          "internalType": "address",
          "name": "approved",
          "type": "address"
        },
        {
          "indexed": true,
          "internalType": "uint256",
          "name": "tokenId",
          "type": "uint256"
        }
      ],
      "name": "Approval",
      "type": "event"
    },
    {
      "anonymous": false,
      "inputs": [
        {
          "indexed": true,
          "internalType": "address",
          "name": "owner",
          "type": "address"
        },
        {
          "indexed": true,
          "internalType": "address",
          "name": "operator",
          "type": "address"
        },
        {
          "indexed": false,
          "internalType": "bool",
          "name": "approved",
          "type": "bool"
        }
      ],
      "name": "ApprovalForAll",
      "type": "event"
    },
    {
      "anonymous": false,
      "inputs": [
        {
          "indexed": false,
          "internalType": "uint256",
          "name": "_fromTokenId",
          "type": "uint256"
        },
        {
          "indexed": false,
          "internalType": "uint256",
          "name": "_toTokenId",
          "type": "uint256"
        }
      ],
      "name": "BatchMetadataUpdate",
      "type": "event"
    },
    {
      "anonymous": false,
      "inputs": [
        {
          "indexed": false,
          "internalType": "uint256",
          "name": "tokenId",
          "type": "uint256"
        },
        {
          "indexed": false,
          "internalType": "uint256",
          "name": "payType",
          "type": "uint256"
        },
        {
          "indexed": false,
          "internalType": "uint256",
          "name": "price",
          "type": "uint256"
        }
      ],
      "name": "ListPriceUpdated",
      "type": "event"
    },
    {
      "anonymous": false,
      "inputs": [
        {
          "indexed": false,
          "internalType": "uint256",
          "name": "_tokenId",
          "type": "uint256"
        }
      ],
      "name": "MetadataUpdate",
      "type": "event"
    },
    {
      "anonymous": false,
      "inputs": [
        {
          "indexed": false,
          "internalType": "uint256",
          "name": "tokenId",
          "type": "uint256"
        },
        {
          "indexed": false,
          "internalType": "address",
          "name": "owner",
          "type": "address"
        },
        {
          "indexed": false,
          "internalType": "uint256",
          "name": "payType",
          "type": "uint256"
        },
        {
          "indexed": false,
          "internalType": "uint256",
          "name": "price",
          "type": "uint256"
        }
      ],
      "name": "NFTSold",
      "type": "event"
    },
    {
      "anonymous": false,
      "inputs": [
        {
          "indexed": true,
          "internalType": "bytes32",
          "name": "role",
          "type": "bytes32"
        },
        {
          "indexed": true,
          "internalType": "bytes32",
          "name": "previousAdminRole",
          "type": "bytes32"
        },
        {
          "indexed": true,
          "internalType": "bytes32",
          "name": "newAdminRole",
          "type": "bytes32"
        }
      ],
      "name": "RoleAdminChanged",
      "type": "event"
    },
    {
      "anonymous": false,
      "inputs": [
        {
          "indexed": true,
          "internalType": "bytes32",
          "name": "role",
          "type": "bytes32"
        },
        {
          "indexed": true,
          "internalType": "address",
          "name": "account",
          "type": "address"
        },
        {
          "indexed": true,
          "internalType": "address",
          "name": "sender",
          "type": "address"
        }
      ],
      "name": "RoleGranted",
      "type": "event"
    },
    {
      "anonymous": false,
      "inputs": [
        {
          "indexed": true,
          "internalType": "bytes32",
          "name": "role",
          "type": "bytes32"
        },
        {
          "indexed": true,
          "internalType": "address",
          "name": "account",
          "type": "address"
        },
        {
          "indexed": true,
          "internalType": "address",
          "name": "sender",
          "type": "address"
        }
      ],
      "name": "RoleRevoked",
      "type": "event"
    },
    {
      "anonymous": false,
      "inputs": [
        {
          "indexed": false,
          "internalType": "uint256",
          "name": "tokenId",
          "type": "uint256"
        }
      ],
      "name": "TokenCancelListSuccess",
      "type": "event"
    },
    {
      "anonymous": false,
      "inputs": [
        {
          "indexed": false,
          "internalType": "uint256",
          "name": "tokenId",
          "type": "uint256"
        },
        {
          "indexed": false,
          "internalType": "uint256",
          "name": "payType",
          "type": "uint256"
        },
        {
          "indexed": false,
          "internalType": "uint256",
          "name": "price",
          "type": "uint256"
        }
      ],
      "name": "TokenListedSuccess",
      "type": "event"
    },
    {
      "anonymous": false,
      "inputs": [
        {
          "indexed": true,
          "internalType": "address",
          "name": "from",
          "type": "address"
        },
        {
          "indexed": true,
          "internalType": "address",
          "name": "to",
          "type": "address"
        },
        {
          "indexed": true,
          "internalType": "uint256",
          "name": "tokenId",
          "type": "uint256"
        }
      ],
      "name": "Transfer",
      "type": "event"
    },
    {
      "inputs": [],
      "name": "DEFAULT_ADMIN_ROLE",
      "outputs": [
        {
          "internalType": "bytes32",
          "name": "",
          "type": "bytes32"
        }
      ],
      "stateMutability": "view",
      "type": "function"
    },
    {
      "inputs": [],
      "name": "MINTER_ROLE",
      "outputs": [
        {
          "internalType": "bytes32",
          "name": "",
          "type": "bytes32"
        }
      ],
      "stateMutability": "view",
      "type": "function"
    },
    {
      "inputs": [],
      "name": "admin",
      "outputs": [
        {
          "internalType": "address",
          "name": "",
          "type": "address"
        }
      ],
      "stateMutability": "view",
      "type": "function"
    },
    {
      "inputs": [
        {
          "internalType": "address",
          "name": "to",
          "type": "address"
        },
        {
          "internalType": "uint256",
          "name": "tokenId",
          "type": "uint256"
        }
      ],
      "name": "approve",
      "outputs": [],
      "stateMutability": "nonpayable",
      "type": "function"
    },
    {
      "inputs": [
        {
          "internalType": "address",
          "name": "owner",
          "type": "address"
        }
      ],
      "name": "balanceOf",
      "outputs": [
        {
          "internalType": "uint256",
          "name": "",
          "type": "uint256"
        }
      ],
      "stateMutability": "view",
      "type": "function"
    },
    {
      "inputs": [
        {
          "internalType": "uint256",
          "name": "tokenId",
          "type": "uint256"
        }
      ],
      "name": "burn",
      "outputs": [],
      "stateMutability": "nonpayable",
      "type": "function"
    },
    {
      "inputs": [
        {
          "internalType": "uint256",
          "name": "tokenId",
          "type": "uint256"
        }
      ],
      "name": "burnNFT",
      "outputs": [],
      "stateMutability": "nonpayable",
      "type": "function"
    },
    {
      "inputs": [
        {
          "internalType": "uint256",
          "name": "tokenId",
          "type": "uint256"
        }
      ],
      "name": "cancelListedToken",
      "outputs": [],
      "stateMutability": "nonpayable",
      "type": "function"
    },
    {
      "inputs": [
        {
          "internalType": "uint256",
          "name": "tokenId",
          "type": "uint256"
        },
        {
          "internalType": "uint256",
          "name": "payType",
          "type": "uint256"
        },
        {
          "internalType": "uint256",
          "name": "price",
          "type": "uint256"
        }
      ],
      "name": "createListedToken",
      "outputs": [],
      "stateMutability": "nonpayable",
      "type": "function"
    },
    {
      "inputs": [
        {
          "internalType": "uint256",
          "name": "tokenId",
          "type": "uint256"
        }
      ],
      "name": "execSale",
      "outputs": [],
      "stateMutability": "payable",
      "type": "function"
    },
    {
      "inputs": [
        {
          "internalType": "uint256",
          "name": "tokenId",
          "type": "uint256"
        }
      ],
      "name": "getApproved",
      "outputs": [
        {
          "internalType": "address",
          "name": "",
          "type": "address"
        }
      ],
      "stateMutability": "view",
      "type": "function"
    },
    {
      "inputs": [],
      "name": "getCurrentId",
      "outputs": [
        {
          "internalType": "uint256",
          "name": "",
          "type": "uint256"
        }
      ],
      "stateMutability": "view",
      "type": "function"
    },
    {
      "inputs": [
        {
          "internalType": "bytes32",
          "name": "role",
          "type": "bytes32"
        }
      ],
      "name": "getRoleAdmin",
      "outputs": [
        {
          "internalType": "bytes32",
          "name": "",
          "type": "bytes32"
        }
      ],
      "stateMutability": "view",
      "type": "function"
    },
    {
      "inputs": [
        {
          "internalType": "uint256",
          "name": "tokenId",
          "type": "uint256"
        }
      ],
      "name": "getTokenForId",
      "outputs": [
        {
          "components": [
            {
              "internalType": "uint256",
              "name": "id",
              "type": "uint256"
            },
            {
              "internalType": "address",
              "name": "owner",
              "type": "address"
            },
            {
              "internalType": "string",
              "name": "tokenURI",
              "type": "string"
            },
            {
              "internalType": "uint256",
              "name": "paytype",
              "type": "uint256"
            },
            {
              "internalType": "uint256",
              "name": "price",
              "type": "uint256"
            },
            {
              "internalType": "uint256",
              "name": "status",
              "type": "uint256"
            },
            {
              "internalType": "uint256",
              "name": "time",
              "type": "uint256"
            }
          ],
          "internalType": "struct IGroovesNFT.Token",
          "name": "",
          "type": "tuple"
        }
      ],
      "stateMutability": "view",
      "type": "function"
    },
    {
      "inputs": [],
      "name": "getTokens",
      "outputs": [
        {
          "components": [
            {
              "internalType": "uint256",
              "name": "id",
              "type": "uint256"
            },
            {
              "internalType": "address",
              "name": "owner",
              "type": "address"
            },
            {
              "internalType": "string",
              "name": "tokenURI",
              "type": "string"
            },
            {
              "internalType": "uint256",
              "name": "paytype",
              "type": "uint256"
            },
            {
              "internalType": "uint256",
              "name": "price",
              "type": "uint256"
            },
            {
              "internalType": "uint256",
              "name": "status",
              "type": "uint256"
            },
            {
              "internalType": "uint256",
              "name": "time",
              "type": "uint256"
            }
          ],
          "internalType": "struct IGroovesNFT.Token[]",
          "name": "",
          "type": "tuple[]"
        }
      ],
      "stateMutability": "view",
      "type": "function"
    },
    {
      "inputs": [
        {
          "internalType": "bytes32",
          "name": "role",
          "type": "bytes32"
        },
        {
          "internalType": "address",
          "name": "account",
          "type": "address"
        }
      ],
      "name": "grantRole",
      "outputs": [],
      "stateMutability": "nonpayable",
      "type": "function"
    },
    {
      "inputs": [
        {
          "internalType": "bytes32",
          "name": "role",
          "type": "bytes32"
        },
        {
          "internalType": "address",
          "name": "account",
          "type": "address"
        }
      ],
      "name": "hasRole",
      "outputs": [
        {
          "internalType": "bool",
          "name": "",
          "type": "bool"
        }
      ],
      "stateMutability": "view",
      "type": "function"
    },
    {
      "inputs": [
        {
          "internalType": "address",
          "name": "owner",
          "type": "address"
        },
        {
          "internalType": "address",
          "name": "operator",
          "type": "address"
        }
      ],
      "name": "isApprovedForAll",
      "outputs": [
        {
          "internalType": "bool",
          "name": "",
          "type": "bool"
        }
      ],
      "stateMutability": "view",
      "type": "function"
    },
    {
      "inputs": [
        {
          "internalType": "string",
          "name": "tokenUri",
          "type": "string"
        },
        {
          "internalType": "uint256",
          "name": "quantity",
          "type": "uint256"
        }
      ],
      "name": "mintNFT",
      "outputs": [],
      "stateMutability": "nonpayable",
      "type": "function"
    },
    {
      "inputs": [],
      "name": "name",
      "outputs": [
        {
          "internalType": "string",
          "name": "",
          "type": "string"
        }
      ],
      "stateMutability": "view",
      "type": "function"
    },
    {
      "inputs": [
        {
          "internalType": "uint256",
          "name": "tokenId",
          "type": "uint256"
        }
      ],
      "name": "ownerOf",
      "outputs": [
        {
          "internalType": "address",
          "name": "",
          "type": "address"
        }
      ],
      "stateMutability": "view",
      "type": "function"
    },
    {
      "inputs": [],
      "name": "payToken",
      "outputs": [
        {
          "internalType": "contract IERC20",
          "name": "",
          "type": "address"
        }
      ],
      "stateMutability": "view",
      "type": "function"
    },
    {
      "inputs": [
        {
          "internalType": "bytes32",
          "name": "role",
          "type": "bytes32"
        },
        {
          "internalType": "address",
          "name": "account",
          "type": "address"
        }
      ],
      "name": "renounceRole",
      "outputs": [],
      "stateMutability": "nonpayable",
      "type": "function"
    },
    {
      "inputs": [
        {
          "internalType": "bytes32",
          "name": "role",
          "type": "bytes32"
        },
        {
          "internalType": "address",
          "name": "account",
          "type": "address"
        }
      ],
      "name": "revokeRole",
      "outputs": [],
      "stateMutability": "nonpayable",
      "type": "function"
    },
    {
      "inputs": [
        {
          "internalType": "address",
          "name": "from",
          "type": "address"
        },
        {
          "internalType": "address",
          "name": "to",
          "type": "address"
        },
        {
          "internalType": "uint256",
          "name": "tokenId",
          "type": "uint256"
        }
      ],
      "name": "safeTransferFrom",
      "outputs": [],
      "stateMutability": "nonpayable",
      "type": "function"
    },
    {
      "inputs": [
        {
          "internalType": "address",
          "name": "from",
          "type": "address"
        },
        {
          "internalType": "address",
          "name": "to",
          "type": "address"
        },
        {
          "internalType": "uint256",
          "name": "tokenId",
          "type": "uint256"
        },
        {
          "internalType": "bytes",
          "name": "data",
          "type": "bytes"
        }
      ],
      "name": "safeTransferFrom",
      "outputs": [],
      "stateMutability": "nonpayable",
      "type": "function"
    },
    {
      "inputs": [
        {
          "internalType": "address",
          "name": "operator",
          "type": "address"
        },
        {
          "internalType": "bool",
          "name": "approved",
          "type": "bool"
        }
      ],
      "name": "setApprovalForAll",
      "outputs": [],
      "stateMutability": "nonpayable",
      "type": "function"
    },
    {
      "inputs": [
        {
          "components": [
            {
              "internalType": "uint256",
              "name": "id",
              "type": "uint256"
            },
            {
              "internalType": "address",
              "name": "owner",
              "type": "address"
            },
            {
              "internalType": "string",
              "name": "tokenURI",
              "type": "string"
            },
            {
              "internalType": "uint256",
              "name": "paytype",
              "type": "uint256"
            },
            {
              "internalType": "uint256",
              "name": "price",
              "type": "uint256"
            },
            {
              "internalType": "uint256",
              "name": "status",
              "type": "uint256"
            },
            {
              "internalType": "uint256",
              "name": "time",
              "type": "uint256"
            }
          ],
          "internalType": "struct IGroovesNFT.Token",
          "name": "t",
          "type": "tuple"
        },
        {
          "internalType": "uint256",
          "name": "tokenId",
          "type": "uint256"
        }
      ],
      "name": "setToken",
      "outputs": [],
      "stateMutability": "nonpayable",
      "type": "function"
    },
    {
      "inputs": [
        {
          "internalType": "bytes4",
          "name": "interfaceId",
          "type": "bytes4"
        }
      ],
      "name": "supportsInterface",
      "outputs": [
        {
          "internalType": "bool",
          "name": "",
          "type": "bool"
        }
      ],
      "stateMutability": "view",
      "type": "function"
    },
    {
      "inputs": [],
      "name": "symbol",
      "outputs": [
        {
          "internalType": "string",
          "name": "",
          "type": "string"
        }
      ],
      "stateMutability": "view",
      "type": "function"
    },
    {
      "inputs": [
        {
          "internalType": "uint256",
          "name": "tokenId",
          "type": "uint256"
        }
      ],
      "name": "tokenURI",
      "outputs": [
        {
          "internalType": "string",
          "name": "",
          "type": "string"
        }
      ],
      "stateMutability": "view",
      "type": "function"
    },
    {
      "inputs": [
        {
          "internalType": "address",
          "name": "from",
          "type": "address"
        },
        {
          "internalType": "address",
          "name": "to",
          "type": "address"
        },
        {
          "internalType": "uint256",
          "name": "tokenId",
          "type": "uint256"
        }
      ],
      "name": "transferFrom",
      "outputs": [],
      "stateMutability": "nonpayable",
      "type": "function"
    },
    {
      "inputs": [
        {
          "internalType": "address",
          "name": "from",
          "type": "address"
        },
        {
          "internalType": "address",
          "name": "to",
          "type": "address"
        },
        {
          "internalType": "uint256",
          "name": "tokenId",
          "type": "uint256"
        }
      ],
      "name": "transferNFT",
      "outputs": [],
      "stateMutability": "nonpayable",
      "type": "function"
    },
    {
      "inputs": [
        {
          "internalType": "uint256",
          "name": "tokenId",
          "type": "uint256"
        },
        {
          "internalType": "uint256",
          "name": "payType",
          "type": "uint256"
        },
        {
          "internalType": "uint256",
          "name": "price",
          "type": "uint256"
        }
      ],
      "name": "updateListPrice",
      "outputs": [],
      "stateMutability": "nonpayable",
      "type": "function"
    }
  ],
  "bytecode": "0x6080604052600880546001600160a01b03199081167352e087107876cfd8b460160cca5074956d9ab27e179091556009805490911673494332cffc6ca402547f4485c177622abec370041790553480156200005957600080fd5b5060405162003541380380620035418339810160408190526200007c91620001d3565b6040518060400160405280600a81526020016911dc9bdbdd995cd3919560b21b8152506040518060400160405280600481526020016311d3919560e21b8152508160009081620000cd9190620002aa565b506001620000dc8282620002aa565b50620000ee915060009050336200012e565b60095462000108906000906001600160a01b03166200012e565b600c80546001600160a01b0319166001600160a01b039290921691909117905562000376565b60008281526007602090815260408083206001600160a01b038516845290915290205460ff16620001cf5760008281526007602090815260408083206001600160a01b03851684529091529020805460ff191660011790556200018e3390565b6001600160a01b0316816001600160a01b0316837f2f8788117e7eff1d82e926ec794901d17c78024a50270940304540a733656f0d60405160405180910390a45b5050565b600060208284031215620001e657600080fd5b81516001600160a01b0381168114620001fe57600080fd5b9392505050565b634e487b7160e01b600052604160045260246000fd5b600181811c908216806200023057607f821691505b6020821081036200025157634e487b7160e01b600052602260045260246000fd5b50919050565b601f821115620002a557600081815260208120601f850160051c81016020861015620002805750805b601f850160051c820191505b81811015620002a1578281556001016200028c565b5050505b505050565b81516001600160401b03811115620002c657620002c662000205565b620002de81620002d784546200021b565b8462000257565b602080601f831160018114620003165760008415620002fd5750858301515b600019600386901b1c1916600185901b178555620002a1565b600085815260208120601f198616915b82811015620003475788860151825594840194600190910190840162000326565b5085821015620003665787850151600019600388901b60f8161c191681555b5050505050600190811b01905550565b6131bb80620003866000396000f3fe6080604052600436106101f95760003560e01c80636c1438621161010d578063a22cb465116100a0578063d53913931161006f578063d5391393146105db578063d547741f1461060f578063e985e9c51461062f578063f34fd33414610678578063f851a4401461068b57600080fd5b8063a22cb46514610559578063aa6ca80814610579578063b88d4fde1461059b578063c87b56dd146105bb57600080fd5b806395d89b41116100dc57806395d89b41146104ef57806396336b30146105045780639b93029614610524578063a217fddf1461054457600080fd5b80636c1438621461047a57806370a082311461048f57806378fa91a6146104af57806391d14854146104cf57600080fd5b80632890e0d71161019057806342966c681161015f57806342966c68146103da5780635afa3a72146103fa5780636352211e1461041a57806366c3049e1461043a57806369e9cae11461045a57600080fd5b80632890e0d71461035a5780632f2ff15d1461037a57806336568abe1461039a57806342842e0e146103ba57600080fd5b806311484766116101cc57806311484766146102af57806323b872dd146102cf5780632444a8a6146102ef578063248a9ca31461031c57600080fd5b806301ffc9a7146101fe57806306fdde0314610233578063081812fc14610255578063095ea7b31461028d575b600080fd5b34801561020a57600080fd5b5061021e61021936600461265e565b6106ab565b60405190151581526020015b60405180910390f35b34801561023f57600080fd5b506102486106bc565b60405161022a91906126cb565b34801561026157600080fd5b506102756102703660046126de565b61074e565b6040516001600160a01b03909116815260200161022a565b34801561029957600080fd5b506102ad6102a836600461271c565b610775565b005b3480156102bb57600080fd5b506102ad6102ca366004612748565b61088f565b3480156102db57600080fd5b506102ad6102ea366004612774565b6109c7565b3480156102fb57600080fd5b5061030f61030a3660046126de565b6109f9565b60405161022a919061281a565b34801561032857600080fd5b5061034c6103373660046126de565b60009081526007602052604090206001015490565b60405190815260200161022a565b34801561036657600080fd5b506102ad6103753660046126de565b610afc565b34801561038657600080fd5b506102ad61039536600461282d565b610b08565b3480156103a657600080fd5b506102ad6103b536600461282d565b610b2d565b3480156103c657600080fd5b506102ad6103d5366004612774565b610bab565b3480156103e657600080fd5b506102ad6103f53660046126de565b610bc6565b34801561040657600080fd5b506102ad610415366004612953565b610beb565b34801561042657600080fd5b506102756104353660046126de565b610d0b565b34801561044657600080fd5b506102ad6104553660046126de565b610d6b565b34801561046657600080fd5b506102ad610475366004612774565b6109ee565b34801561048657600080fd5b5061034c610f0f565b34801561049b57600080fd5b5061034c6104aa366004612998565b610f1f565b3480156104bb57600080fd5b506102ad6104ca3660046129b5565b610fa5565b3480156104db57600080fd5b5061021e6104ea36600461282d565b611025565b3480156104fb57600080fd5b50610248611050565b34801561051057600080fd5b50600854610275906001600160a01b031681565b34801561053057600080fd5b506102ad61053f366004612748565b61105f565b34801561055057600080fd5b5061034c600081565b34801561056557600080fd5b506102ad610574366004612a7f565b6111ea565b34801561058557600080fd5b5061058e6111f5565b60405161022a9190612aad565b3480156105a757600080fd5b506102ad6105b6366004612b0f565b61139f565b3480156105c757600080fd5b506102486105d63660046126de565b6113d7565b3480156105e757600080fd5b5061034c7f9f2df0fed2c77648de5860a4cc508cd0818c85b8b8a1ab4ceeef8d981c8956a681565b34801561061b57600080fd5b506102ad61062a36600461282d565b6113e2565b34801561063b57600080fd5b5061021e61064a366004612b8f565b6001600160a01b03918216600090815260056020908152604080832093909416825291909152205460ff1690565b6102ad6106863660046126de565b611407565b34801561069757600080fd5b50600954610275906001600160a01b031681565b60006106b682611702565b92915050565b6060600080546106cb90612bbd565b80601f01602080910402602001604051908101604052809291908181526020018280546106f790612bbd565b80156107445780601f1061071957610100808354040283529160200191610744565b820191906000526020600020905b81548152906001019060200180831161072757829003601f168201915b5050505050905090565b600061075982611727565b506000908152600460205260409020546001600160a01b031690565b600061078082610d0b565b9050806001600160a01b0316836001600160a01b0316036107f25760405162461bcd60e51b815260206004820152602160248201527f4552433732313a20617070726f76616c20746f2063757272656e74206f776e656044820152603960f91b60648201526084015b60405180910390fd5b336001600160a01b038216148061080e575061080e813361064a565b6108805760405162461bcd60e51b815260206004820152603d60248201527f4552433732313a20617070726f76652063616c6c6572206973206e6f7420746f60448201527f6b656e206f776e6572206f7220617070726f76656420666f7220616c6c00000060648201526084016107e9565b61088a8383611786565b505050565b61089a600033611025565b6108b65760405162461bcd60e51b81526004016107e990612bf1565b600081116108d65760405162461bcd60e51b81526004016107e990612c21565b600c54604051631222545360e11b8152600481018590526000916001600160a01b031690632444a8a690602401600060405180830381865afa158015610920573d6000803e3d6000fd5b505050506040513d6000823e601f3d908101601f191682016040526109489190810190612cb3565b60808101839052606081018490524260c0820152600c54604051633c7d48d360e11b81529192506001600160a01b0316906378fa91a69061098f9084908890600401612d66565b600060405180830381600087803b1580156109a957600080fd5b505af11580156109bd573d6000803e3d6000fd5b5050505050505050565b6109d2335b826117f4565b6109ee5760405162461bcd60e51b81526004016107e990612d88565b61088a838383611873565b610a016125b4565b6000828152600a6020908152604091829020825160e0810184528154815260018201546001600160a01b0316928101929092526002810180549293919291840191610a4b90612bbd565b80601f0160208091040260200160405190810160405280929190818152602001828054610a7790612bbd565b8015610ac45780601f10610a9957610100808354040283529160200191610ac4565b820191906000526020600020905b815481529060010190602001808311610aa757829003601f168201915b505050505081526020016003820154815260200160048201548152602001600582015481526020016006820154815250509050919050565b610b05816119d7565b50565b600082815260076020526040902060010154610b23816119e0565b61088a83836119ea565b6001600160a01b0381163314610b9d5760405162461bcd60e51b815260206004820152602f60248201527f416363657373436f6e74726f6c3a2063616e206f6e6c792072656e6f756e636560448201526e103937b632b9903337b91039b2b63360891b60648201526084016107e9565b610ba78282611a70565b5050565b61088a8383836040518060200160405280600081525061139f565b610bcf336109cc565b610afc5760405162461bcd60e51b81526004016107e990612d88565b610bf6600033611025565b610c125760405162461bcd60e51b81526004016107e990612bf1565b60005b8181101561088a57610c2b600b80546001019055565b6000610c36600b5490565b9050610c423382611ad7565b610c4c8185611af1565b6040805160e08101825282815233602080830191825282840188815260006060850181905260808501819052600160a086018190524260c0870152878252600a9093529490942083518155915190820180546001600160a01b0319166001600160a01b0390921691909117905591519091906002820190610ccd9082612e1b565b50606082015160038201556080820151600482015560a0820151600582015560c0909101516006909101555080610d0381612ef1565b915050610c15565b6000818152600260205260408120546001600160a01b0316806106b65760405162461bcd60e51b8152602060048201526018602482015277115490cdcc8c4e881a5b9d985b1a59081d1bdad95b88125160421b60448201526064016107e9565b610d76600033611025565b610d925760405162461bcd60e51b81526004016107e990612bf1565b600c546040516369e9cae160e01b81526001600160a01b03909116906369e9cae190610dc690309033908690600401612f0a565b600060405180830381600087803b158015610de057600080fd5b505af1158015610df4573d6000803e3d6000fd5b50506040805160e081018252848152336020820152600c54825163c87b56dd60e01b81526004810187905260009550919350918301916001600160a01b03169063c87b56dd90602401600060405180830381865afa158015610e5a573d6000803e3d6000fd5b505050506040513d6000823e601f3d908101601f19168201604052610e829190810190612f2e565b81526000602082018190526040808301919091526001606083015242608090920191909152600c549051633c7d48d360e11b81529192506001600160a01b0316906378fa91a690610ed99084908690600401612d66565b600060405180830381600087803b158015610ef357600080fd5b505af1158015610f07573d6000803e3d6000fd5b505050505050565b6000610f1a600b5490565b905090565b60006001600160a01b038216610f895760405162461bcd60e51b815260206004820152602960248201527f4552433732313a2061646472657373207a65726f206973206e6f7420612076616044820152683634b21037bbb732b960b91b60648201526084016107e9565b506001600160a01b031660009081526003602052604090205490565b6000818152600a602090815260409182902084518155908401516001820180546001600160a01b0319166001600160a01b03909216919091179055908301518391906002820190610ff69082612e1b565b50606082015160038201556080820151600482015560a0820151600582015560c0909101516006909101555050565b60009182526007602090815260408084206001600160a01b0393909316845291905290205460ff1690565b6060600180546106cb90612bbd565b61106a600033611025565b6110865760405162461bcd60e51b81526004016107e990612bf1565b600081116110a65760405162461bcd60e51b81526004016107e990612c21565b600c546040516369e9cae160e01b81526001600160a01b03909116906369e9cae1906110da90339030908890600401612f0a565b600060405180830381600087803b1580156110f457600080fd5b505af1158015611108573d6000803e3d6000fd5b50506040805160e081018252868152306020820152600c54825163c87b56dd60e01b81526004810189905260009550919350918301916001600160a01b03169063c87b56dd90602401600060405180830381865afa15801561116e573d6000803e3d6000fd5b505050506040513d6000823e601f3d908101601f191682016040526111969190810190612f2e565b81526020810185905260408082018590526002606083015242608090920191909152600c549051633c7d48d360e11b81529192506001600160a01b0316906378fa91a69061098f9084908890600401612d66565b610ba7338383611bbc565b60606000611202600b5490565b67ffffffffffffffff81111561121a5761121a61285d565b60405190808252806020026020018201604052801561125357816020015b6112406125b4565b8152602001906001900390816112385790505b50905060005b600b54811015611399576000600a81611273846001612f63565b81526020808201929092526040908101600020815160e0810183528154815260018201546001600160a01b03169381019390935260028101805491945084928401916112be90612bbd565b80601f01602080910402602001604051908101604052809291908181526020018280546112ea90612bbd565b80156113375780601f1061130c57610100808354040283529160200191611337565b820191906000526020600020905b81548152906001019060200180831161131a57829003601f168201915b5050505050815260200160038201548152602001600482015481526020016005820154815260200160068201548152505083838151811061137a5761137a612f76565b602002602001018190525050808061139190612ef1565b915050611259565b50919050565b6113a933836117f4565b6113c55760405162461bcd60e51b81526004016107e990612d88565b6113d184848484611c8a565b50505050565b60606106b682611cbd565b6000828152600760205260409020600101546113fd816119e0565b61088a8383611a70565b600c54604051631222545360e11b8152600481018390526000916001600160a01b031690632444a8a690602401600060405180830381865afa158015611451573d6000803e3d6000fd5b505050506040513d6000823e601f3d908101601f191682016040526114799190810190612cb3565b608081015160608201519192509060018190036115cb576008546040516370a0823160e01b815233600482015283916001600160a01b0316906370a0823190602401602060405180830381865afa1580156114d8573d6000803e3d6000fd5b505050506040513d601f19601f820116820180604052508101906114fc9190612f8c565b116115495760405162461bcd60e51b815260206004820152601b60248201527f596f7520646f6e2774206861766520656e6f75676820475256432e000000000060448201526064016107e9565b6008546009546040516323b872dd60e01b81526001600160a01b03928316926323b872dd92611582923392909116908790600401612f0a565b6020604051808303816000875af11580156115a1573d6000803e3d6000fd5b505050506040513d601f19601f820116820180604052508101906115c59190612fa5565b50611657565b3331821061161b5760405162461bcd60e51b815260206004820152601a60248201527f596f7520646f6e2774206861766520656e6f75676820424e422e00000000000060448201526064016107e9565b6009546040516001600160a01b039091169083156108fc029084906000818181858888f19350505050158015611655573d6000803e3d6000fd5b505b600c546040516369e9cae160e01b81526001600160a01b03909116906369e9cae19061168b90309033908990600401612f0a565b600060405180830381600087803b1580156116a557600080fd5b505af11580156116b9573d6000803e3d6000fd5b50503360208601525050600360a08401524260c0840152600c54604051633c7d48d360e11b81526001600160a01b03909116906378fa91a69061098f9086908890600401612d66565b60006001600160e01b03198216637965db0b60e01b14806106b657506106b682611dc5565b6000818152600260205260409020546001600160a01b0316610b055760405162461bcd60e51b8152602060048201526018602482015277115490cdcc8c4e881a5b9d985b1a59081d1bdad95b88125160421b60448201526064016107e9565b600081815260046020526040902080546001600160a01b0319166001600160a01b03841690811790915581906117bb82610d0b565b6001600160a01b03167f8c5be1e5ebec7d5bd14f71427d1e84f3dd0314c0f7b2291e5b200ac8c7c3b92560405160405180910390a45050565b60008061180083610d0b565b9050806001600160a01b0316846001600160a01b0316148061184757506001600160a01b0380821660009081526005602090815260408083209388168352929052205460ff165b8061186b5750836001600160a01b03166118608461074e565b6001600160a01b0316145b949350505050565b826001600160a01b031661188682610d0b565b6001600160a01b0316146118ac5760405162461bcd60e51b81526004016107e990612fc2565b6001600160a01b03821661190e5760405162461bcd60e51b8152602060048201526024808201527f4552433732313a207472616e7366657220746f20746865207a65726f206164646044820152637265737360e01b60648201526084016107e9565b826001600160a01b031661192182610d0b565b6001600160a01b0316146119475760405162461bcd60e51b81526004016107e990612fc2565b600081815260046020908152604080832080546001600160a01b03199081169091556001600160a01b0387811680865260038552838620805460001901905590871680865283862080546001019055868652600290945282852080549092168417909155905184937fddf252ad1be2c89b69c2b068fc378daa952ba7f163c4a11628f55a4df523b3ef91a4505050565b610b0581611dea565b610b058133611e2a565b6119f48282611025565b610ba75760008281526007602090815260408083206001600160a01b03851684529091529020805460ff19166001179055611a2c3390565b6001600160a01b0316816001600160a01b0316837f2f8788117e7eff1d82e926ec794901d17c78024a50270940304540a733656f0d60405160405180910390a45050565b611a7a8282611025565b15610ba75760008281526007602090815260408083206001600160a01b0385168085529252808320805460ff1916905551339285917ff6391f5c32d9c69d2a47ea670b442974b53935d1edc7fd64eb21e047a839171b9190a45050565b610ba7828260405180602001604052806000815250611e83565b6000828152600260205260409020546001600160a01b0316611b6c5760405162461bcd60e51b815260206004820152602e60248201527f45524337323155524953746f726167653a2055524920736574206f66206e6f6e60448201526d32bc34b9ba32b73a103a37b5b2b760911b60648201526084016107e9565b6000828152600660205260409020611b848282612e1b565b506040518281527ff8e1a15aba9398e019f0b49df1a4fde98ee17ae345cb5f6b5e2c27f5033e8ce79060200160405180910390a15050565b816001600160a01b0316836001600160a01b031603611c1d5760405162461bcd60e51b815260206004820152601960248201527f4552433732313a20617070726f766520746f2063616c6c65720000000000000060448201526064016107e9565b6001600160a01b03838116600081815260056020908152604080832094871680845294825291829020805460ff191686151590811790915591519182527f17307eab39ab6107e8899845ad3d59bd9653f200f220920489ca2b5937696c31910160405180910390a3505050565b611c95848484611873565b611ca184848484611eb6565b6113d15760405162461bcd60e51b81526004016107e990613007565b6060611cc882611727565b60008281526006602052604081208054611ce190612bbd565b80601f0160208091040260200160405190810160405280929190818152602001828054611d0d90612bbd565b8015611d5a5780601f10611d2f57610100808354040283529160200191611d5a565b820191906000526020600020905b815481529060010190602001808311611d3d57829003601f168201915b505050505090506000611d7860408051602081019091526000815290565b90508051600003611d8a575092915050565b815115611dbc578082604051602001611da4929190613059565b60405160208183030381529060405292505050919050565b61186b84611fb7565b60006001600160e01b03198216632483248360e11b14806106b657506106b68261202b565b611df38161207b565b60008181526006602052604090208054611e0c90612bbd565b159050610b05576000818152600660205260408120610b05916125fa565b611e348282611025565b610ba757611e4181612110565b611e4c836020612122565b604051602001611e5d929190613088565b60408051601f198184030181529082905262461bcd60e51b82526107e9916004016126cb565b611e8d83836122be565b611e9a6000848484611eb6565b61088a5760405162461bcd60e51b81526004016107e990613007565b60006001600160a01b0384163b15611fac57604051630a85bd0160e11b81526001600160a01b0385169063150b7a0290611efa9033908990889088906004016130fd565b6020604051808303816000875af1925050508015611f35575060408051601f3d908101601f19168201909252611f329181019061313a565b60015b611f92573d808015611f63576040519150601f19603f3d011682016040523d82523d6000602084013e611f68565b606091505b508051600003611f8a5760405162461bcd60e51b81526004016107e990613007565b805181602001fd5b6001600160e01b031916630a85bd0160e11b14905061186b565b506001949350505050565b6060611fc282611727565b6000611fd960408051602081019091526000815290565b90506000815111611ff95760405180602001604052806000815250612024565b8061200384612449565b604051602001612014929190613059565b6040516020818303038152906040525b9392505050565b60006001600160e01b031982166380ac58cd60e01b148061205c57506001600160e01b03198216635b5e139f60e01b145b806106b657506301ffc9a760e01b6001600160e01b03198316146106b6565b600061208682610d0b565b905061209182610d0b565b600083815260046020908152604080832080546001600160a01b03199081169091556001600160a01b0385168085526003845282852080546000190190558785526002909352818420805490911690555192935084927fddf252ad1be2c89b69c2b068fc378daa952ba7f163c4a11628f55a4df523b3ef908390a45050565b60606106b66001600160a01b03831660145b60606000612131836002613157565b61213c906002612f63565b67ffffffffffffffff8111156121545761215461285d565b6040519080825280601f01601f19166020018201604052801561217e576020820181803683370190505b509050600360fc1b8160008151811061219957612199612f76565b60200101906001600160f81b031916908160001a905350600f60fb1b816001815181106121c8576121c8612f76565b60200101906001600160f81b031916908160001a90535060006121ec846002613157565b6121f7906001612f63565b90505b600181111561226f576f181899199a1a9b1b9c1cb0b131b232b360811b85600f166010811061222b5761222b612f76565b1a60f81b82828151811061224157612241612f76565b60200101906001600160f81b031916908160001a90535060049490941c936122688161316e565b90506121fa565b5083156120245760405162461bcd60e51b815260206004820181905260248201527f537472696e67733a20686578206c656e67746820696e73756666696369656e7460448201526064016107e9565b6001600160a01b0382166123145760405162461bcd60e51b815260206004820181905260248201527f4552433732313a206d696e7420746f20746865207a65726f206164647265737360448201526064016107e9565b6000818152600260205260409020546001600160a01b0316156123795760405162461bcd60e51b815260206004820152601c60248201527f4552433732313a20746f6b656e20616c7265616479206d696e7465640000000060448201526064016107e9565b6000818152600260205260409020546001600160a01b0316156123de5760405162461bcd60e51b815260206004820152601c60248201527f4552433732313a20746f6b656e20616c7265616479206d696e7465640000000060448201526064016107e9565b6001600160a01b038216600081815260036020908152604080832080546001019055848352600290915280822080546001600160a01b0319168417905551839291907fddf252ad1be2c89b69c2b068fc378daa952ba7f163c4a11628f55a4df523b3ef908290a45050565b60606000612456836124dc565b600101905060008167ffffffffffffffff8111156124765761247661285d565b6040519080825280601f01601f1916602001820160405280156124a0576020820181803683370190505b5090508181016020015b600019016f181899199a1a9b1b9c1cb0b131b232b360811b600a86061a8153600a85049450846124aa57509392505050565b60008072184f03e93ff9f4daa797ed6e38ed64bf6a1f0160401b831061251b5772184f03e93ff9f4daa797ed6e38ed64bf6a1f0160401b830492506040015b6d04ee2d6d415b85acef81000000008310612547576d04ee2d6d415b85acef8100000000830492506020015b662386f26fc10000831061256557662386f26fc10000830492506010015b6305f5e100831061257d576305f5e100830492506008015b612710831061259157612710830492506004015b606483106125a3576064830492506002015b600a83106106b65760010192915050565b6040518060e001604052806000815260200160006001600160a01b0316815260200160608152602001600081526020016000815260200160008152602001600081525090565b50805461260690612bbd565b6000825580601f10612616575050565b601f016020900490600052602060002090810190610b0591905b808211156126445760008155600101612630565b5090565b6001600160e01b031981168114610b0557600080fd5b60006020828403121561267057600080fd5b813561202481612648565b60005b8381101561269657818101518382015260200161267e565b50506000910152565b600081518084526126b781602086016020860161267b565b601f01601f19169290920160200192915050565b602081526000612024602083018461269f565b6000602082840312156126f057600080fd5b5035919050565b6001600160a01b0381168114610b0557600080fd5b8035612717816126f7565b919050565b6000806040838503121561272f57600080fd5b823561273a816126f7565b946020939093013593505050565b60008060006060848603121561275d57600080fd5b505081359360208301359350604090920135919050565b60008060006060848603121561278957600080fd5b8335612794816126f7565b925060208401356127a4816126f7565b929592945050506040919091013590565b8051825260018060a01b0360208201511660208301526000604082015160e060408501526127e660e085018261269f565b9050606083015160608501526080830151608085015260a083015160a085015260c083015160c08501528091505092915050565b60208152600061202460208301846127b5565b6000806040838503121561284057600080fd5b823591506020830135612852816126f7565b809150509250929050565b634e487b7160e01b600052604160045260246000fd5b60405160e0810167ffffffffffffffff811182821017156128965761289661285d565b60405290565b604051601f8201601f1916810167ffffffffffffffff811182821017156128c5576128c561285d565b604052919050565b600067ffffffffffffffff8211156128e7576128e761285d565b50601f01601f191660200190565b6000612908612903846128cd565b61289c565b905082815283838301111561291c57600080fd5b828260208301376000602084830101529392505050565b600082601f83011261294457600080fd5b612024838335602085016128f5565b6000806040838503121561296657600080fd5b823567ffffffffffffffff81111561297d57600080fd5b61298985828601612933565b95602094909401359450505050565b6000602082840312156129aa57600080fd5b8135612024816126f7565b600080604083850312156129c857600080fd5b823567ffffffffffffffff808211156129e057600080fd5b9084019060e082870312156129f457600080fd5b6129fc612873565b82358152612a0c6020840161270c565b6020820152604083013582811115612a2357600080fd5b612a2f88828601612933565b604083015250606083013560608201526080830135608082015260a083013560a082015260c083013560c0820152809450505050602083013590509250929050565b8015158114610b0557600080fd5b60008060408385031215612a9257600080fd5b8235612a9d816126f7565b9150602083013561285281612a71565b6000602080830181845280855180835260408601915060408160051b870101925083870160005b82811015612b0257603f19888603018452612af08583516127b5565b94509285019290850190600101612ad4565b5092979650505050505050565b60008060008060808587031215612b2557600080fd5b8435612b30816126f7565b93506020850135612b40816126f7565b925060408501359150606085013567ffffffffffffffff811115612b6357600080fd5b8501601f81018713612b7457600080fd5b612b83878235602084016128f5565b91505092959194509250565b60008060408385031215612ba257600080fd5b8235612bad816126f7565b91506020830135612852816126f7565b600181811c90821680612bd157607f821691505b60208210810361139957634e487b7160e01b600052602260045260246000fd5b60208082526016908201527521b0b63632b91034b9903737ba1030b71020b236b4b760511b604082015260600190565b60208082526022908201527f4d616b652073757265207468652070726963652069736e2774206e6567617469604082015261766560f01b606082015260800190565b8051612717816126f7565b600082601f830112612c7f57600080fd5b8151612c8d612903826128cd565b818152846020838601011115612ca257600080fd5b61186b82602083016020870161267b565b600060208284031215612cc557600080fd5b815167ffffffffffffffff80821115612cdd57600080fd5b9083019060e08286031215612cf157600080fd5b612cf9612873565b82518152612d0960208401612c63565b6020820152604083015182811115612d2057600080fd5b612d2c87828601612c6e565b604083015250606083015160608201526080830151608082015260a083015160a082015260c083015160c082015280935050505092915050565b604081526000612d7960408301856127b5565b90508260208301529392505050565b6020808252602d908201527f4552433732313a2063616c6c6572206973206e6f7420746f6b656e206f776e6560408201526c1c881bdc88185c1c1c9bdd9959609a1b606082015260800190565b601f82111561088a57600081815260208120601f850160051c81016020861015612dfc5750805b601f850160051c820191505b81811015610f0757828155600101612e08565b815167ffffffffffffffff811115612e3557612e3561285d565b612e4981612e438454612bbd565b84612dd5565b602080601f831160018114612e7e5760008415612e665750858301515b600019600386901b1c1916600185901b178555610f07565b600085815260208120601f198616915b82811015612ead57888601518255948401946001909101908401612e8e565b5085821015612ecb5787850151600019600388901b60f8161c191681555b5050505050600190811b01905550565b634e487b7160e01b600052601160045260246000fd5b600060018201612f0357612f03612edb565b5060010190565b6001600160a01b039384168152919092166020820152604081019190915260600190565b600060208284031215612f4057600080fd5b815167ffffffffffffffff811115612f5757600080fd5b61186b84828501612c6e565b808201808211156106b6576106b6612edb565b634e487b7160e01b600052603260045260246000fd5b600060208284031215612f9e57600080fd5b5051919050565b600060208284031215612fb757600080fd5b815161202481612a71565b60208082526025908201527f4552433732313a207472616e736665722066726f6d20696e636f72726563742060408201526437bbb732b960d91b606082015260800190565b60208082526032908201527f4552433732313a207472616e7366657220746f206e6f6e20455243373231526560408201527131b2b4bb32b91034b6b83632b6b2b73a32b960711b606082015260800190565b6000835161306b81846020880161267b565b83519083019061307f81836020880161267b565b01949350505050565b7f416363657373436f6e74726f6c3a206163636f756e74200000000000000000008152600083516130c081601785016020880161267b565b7001034b99036b4b9b9b4b733903937b6329607d1b60179184019182015283516130f181602884016020880161267b565b01602801949350505050565b6001600160a01b03858116825284166020820152604081018390526080606082018190526000906131309083018461269f565b9695505050505050565b60006020828403121561314c57600080fd5b815161202481612648565b80820281158282048414176106b6576106b6612edb565b60008161317d5761317d612edb565b50600019019056fea26469706673582212207b1c8c4fefaaf991e1066b4b84c5a4e2f825b114803946fc6d2161ca4ff5725664736f6c63430008120033",
  "linkReferences": {},
  "deployedLinkReferences": {}
}