{
  "_format": "hh-sol-artifact-1",
  "contractName": "GroovesNFT",
  "sourceName": "contracts/GroovesNFT.sol",
  "abi": [
    {
      "inputs": [],
      "stateMutability": "nonpayable",
      "type": "constructor"
    },
    {
      "anonymous": false,
      "inputs": [
        {
          "indexed": true,
          "internalType": "address",
          "name": "owner",
          "type": "address"
        },
        {
          "indexed": true,
          "internalType": "address",
          "name": "approved",
          "type": "address"
        },
        {
          "indexed": true,
          "internalType": "uint256",
          "name": "tokenId",
          "type": "uint256"
        }
      ],
      "name": "Approval",
      "type": "event"
    },
    {
      "anonymous": false,
      "inputs": [
        {
          "indexed": true,
          "internalType": "address",
          "name": "owner",
          "type": "address"
        },
        {
          "indexed": true,
          "internalType": "address",
          "name": "operator",
          "type": "address"
        },
        {
          "indexed": false,
          "internalType": "bool",
          "name": "approved",
          "type": "bool"
        }
      ],
      "name": "ApprovalForAll",
      "type": "event"
    },
    {
      "anonymous": false,
      "inputs": [
        {
          "indexed": false,
          "internalType": "uint256",
          "name": "_fromTokenId",
          "type": "uint256"
        },
        {
          "indexed": false,
          "internalType": "uint256",
          "name": "_toTokenId",
          "type": "uint256"
        }
      ],
      "name": "BatchMetadataUpdate",
      "type": "event"
    },
    {
      "anonymous": false,
      "inputs": [
        {
          "indexed": false,
          "internalType": "uint256",
          "name": "_tokenId",
          "type": "uint256"
        }
      ],
      "name": "MetadataUpdate",
      "type": "event"
    },
    {
      "anonymous": false,
      "inputs": [
        {
          "indexed": true,
          "internalType": "bytes32",
          "name": "role",
          "type": "bytes32"
        },
        {
          "indexed": true,
          "internalType": "bytes32",
          "name": "previousAdminRole",
          "type": "bytes32"
        },
        {
          "indexed": true,
          "internalType": "bytes32",
          "name": "newAdminRole",
          "type": "bytes32"
        }
      ],
      "name": "RoleAdminChanged",
      "type": "event"
    },
    {
      "anonymous": false,
      "inputs": [
        {
          "indexed": true,
          "internalType": "bytes32",
          "name": "role",
          "type": "bytes32"
        },
        {
          "indexed": true,
          "internalType": "address",
          "name": "account",
          "type": "address"
        },
        {
          "indexed": true,
          "internalType": "address",
          "name": "sender",
          "type": "address"
        }
      ],
      "name": "RoleGranted",
      "type": "event"
    },
    {
      "anonymous": false,
      "inputs": [
        {
          "indexed": true,
          "internalType": "bytes32",
          "name": "role",
          "type": "bytes32"
        },
        {
          "indexed": true,
          "internalType": "address",
          "name": "account",
          "type": "address"
        },
        {
          "indexed": true,
          "internalType": "address",
          "name": "sender",
          "type": "address"
        }
      ],
      "name": "RoleRevoked",
      "type": "event"
    },
    {
      "anonymous": false,
      "inputs": [
        {
          "indexed": true,
          "internalType": "address",
          "name": "from",
          "type": "address"
        },
        {
          "indexed": true,
          "internalType": "address",
          "name": "to",
          "type": "address"
        },
        {
          "indexed": true,
          "internalType": "uint256",
          "name": "tokenId",
          "type": "uint256"
        }
      ],
      "name": "Transfer",
      "type": "event"
    },
    {
      "inputs": [],
      "name": "DEFAULT_ADMIN_ROLE",
      "outputs": [
        {
          "internalType": "bytes32",
          "name": "",
          "type": "bytes32"
        }
      ],
      "stateMutability": "view",
      "type": "function"
    },
    {
      "inputs": [],
      "name": "MINTER_ROLE",
      "outputs": [
        {
          "internalType": "bytes32",
          "name": "",
          "type": "bytes32"
        }
      ],
      "stateMutability": "view",
      "type": "function"
    },
    {
      "inputs": [],
      "name": "admin",
      "outputs": [
        {
          "internalType": "address",
          "name": "",
          "type": "address"
        }
      ],
      "stateMutability": "view",
      "type": "function"
    },
    {
      "inputs": [
        {
          "internalType": "address",
          "name": "to",
          "type": "address"
        },
        {
          "internalType": "uint256",
          "name": "tokenId",
          "type": "uint256"
        }
      ],
      "name": "approve",
      "outputs": [],
      "stateMutability": "nonpayable",
      "type": "function"
    },
    {
      "inputs": [
        {
          "internalType": "address",
          "name": "owner",
          "type": "address"
        }
      ],
      "name": "balanceOf",
      "outputs": [
        {
          "internalType": "uint256",
          "name": "",
          "type": "uint256"
        }
      ],
      "stateMutability": "view",
      "type": "function"
    },
    {
      "inputs": [
        {
          "internalType": "uint256",
          "name": "tokenId",
          "type": "uint256"
        }
      ],
      "name": "burn",
      "outputs": [],
      "stateMutability": "nonpayable",
      "type": "function"
    },
    {
      "inputs": [
        {
          "internalType": "uint256",
          "name": "tokenId",
          "type": "uint256"
        }
      ],
      "name": "burnNFT",
      "outputs": [],
      "stateMutability": "nonpayable",
      "type": "function"
    },
    {
      "inputs": [
        {
          "internalType": "uint256",
          "name": "tokenId",
          "type": "uint256"
        }
      ],
      "name": "getApproved",
      "outputs": [
        {
          "internalType": "address",
          "name": "",
          "type": "address"
        }
      ],
      "stateMutability": "view",
      "type": "function"
    },
    {
      "inputs": [],
      "name": "getCurrentId",
      "outputs": [
        {
          "internalType": "uint256",
          "name": "",
          "type": "uint256"
        }
      ],
      "stateMutability": "view",
      "type": "function"
    },
    {
      "inputs": [
        {
          "internalType": "bytes32",
          "name": "role",
          "type": "bytes32"
        }
      ],
      "name": "getRoleAdmin",
      "outputs": [
        {
          "internalType": "bytes32",
          "name": "",
          "type": "bytes32"
        }
      ],
      "stateMutability": "view",
      "type": "function"
    },
    {
      "inputs": [
        {
          "internalType": "uint256",
          "name": "tokenId",
          "type": "uint256"
        }
      ],
      "name": "getTokenForId",
      "outputs": [
        {
          "components": [
            {
              "internalType": "uint256",
              "name": "id",
              "type": "uint256"
            },
            {
              "internalType": "address",
              "name": "owner",
              "type": "address"
            },
            {
              "internalType": "string",
              "name": "tokenURI",
              "type": "string"
            },
            {
              "internalType": "uint256",
              "name": "paytype",
              "type": "uint256"
            },
            {
              "internalType": "uint256",
              "name": "price",
              "type": "uint256"
            },
            {
              "internalType": "uint256",
              "name": "status",
              "type": "uint256"
            },
            {
              "internalType": "uint256",
              "name": "time",
              "type": "uint256"
            }
          ],
          "internalType": "struct IGroovesNFT.Token",
          "name": "",
          "type": "tuple"
        }
      ],
      "stateMutability": "view",
      "type": "function"
    },
    {
      "inputs": [],
      "name": "getTokens",
      "outputs": [
        {
          "components": [
            {
              "internalType": "uint256",
              "name": "id",
              "type": "uint256"
            },
            {
              "internalType": "address",
              "name": "owner",
              "type": "address"
            },
            {
              "internalType": "string",
              "name": "tokenURI",
              "type": "string"
            },
            {
              "internalType": "uint256",
              "name": "paytype",
              "type": "uint256"
            },
            {
              "internalType": "uint256",
              "name": "price",
              "type": "uint256"
            },
            {
              "internalType": "uint256",
              "name": "status",
              "type": "uint256"
            },
            {
              "internalType": "uint256",
              "name": "time",
              "type": "uint256"
            }
          ],
          "internalType": "struct IGroovesNFT.Token[]",
          "name": "",
          "type": "tuple[]"
        }
      ],
      "stateMutability": "view",
      "type": "function"
    },
    {
      "inputs": [
        {
          "internalType": "bytes32",
          "name": "role",
          "type": "bytes32"
        },
        {
          "internalType": "address",
          "name": "account",
          "type": "address"
        }
      ],
      "name": "grantRole",
      "outputs": [],
      "stateMutability": "nonpayable",
      "type": "function"
    },
    {
      "inputs": [
        {
          "internalType": "bytes32",
          "name": "role",
          "type": "bytes32"
        },
        {
          "internalType": "address",
          "name": "account",
          "type": "address"
        }
      ],
      "name": "hasRole",
      "outputs": [
        {
          "internalType": "bool",
          "name": "",
          "type": "bool"
        }
      ],
      "stateMutability": "view",
      "type": "function"
    },
    {
      "inputs": [
        {
          "internalType": "address",
          "name": "owner",
          "type": "address"
        },
        {
          "internalType": "address",
          "name": "operator",
          "type": "address"
        }
      ],
      "name": "isApprovedForAll",
      "outputs": [
        {
          "internalType": "bool",
          "name": "",
          "type": "bool"
        }
      ],
      "stateMutability": "view",
      "type": "function"
    },
    {
      "inputs": [
        {
          "internalType": "string",
          "name": "tokenUri",
          "type": "string"
        },
        {
          "internalType": "uint256",
          "name": "quantity",
          "type": "uint256"
        }
      ],
      "name": "mintNFT",
      "outputs": [],
      "stateMutability": "nonpayable",
      "type": "function"
    },
    {
      "inputs": [],
      "name": "name",
      "outputs": [
        {
          "internalType": "string",
          "name": "",
          "type": "string"
        }
      ],
      "stateMutability": "view",
      "type": "function"
    },
    {
      "inputs": [
        {
          "internalType": "uint256",
          "name": "tokenId",
          "type": "uint256"
        }
      ],
      "name": "ownerOf",
      "outputs": [
        {
          "internalType": "address",
          "name": "",
          "type": "address"
        }
      ],
      "stateMutability": "view",
      "type": "function"
    },
    {
      "inputs": [],
      "name": "payToken",
      "outputs": [
        {
          "internalType": "contract IERC20",
          "name": "",
          "type": "address"
        }
      ],
      "stateMutability": "view",
      "type": "function"
    },
    {
      "inputs": [
        {
          "internalType": "bytes32",
          "name": "role",
          "type": "bytes32"
        },
        {
          "internalType": "address",
          "name": "account",
          "type": "address"
        }
      ],
      "name": "renounceRole",
      "outputs": [],
      "stateMutability": "nonpayable",
      "type": "function"
    },
    {
      "inputs": [
        {
          "internalType": "bytes32",
          "name": "role",
          "type": "bytes32"
        },
        {
          "internalType": "address",
          "name": "account",
          "type": "address"
        }
      ],
      "name": "revokeRole",
      "outputs": [],
      "stateMutability": "nonpayable",
      "type": "function"
    },
    {
      "inputs": [
        {
          "internalType": "address",
          "name": "from",
          "type": "address"
        },
        {
          "internalType": "address",
          "name": "to",
          "type": "address"
        },
        {
          "internalType": "uint256",
          "name": "tokenId",
          "type": "uint256"
        }
      ],
      "name": "safeTransferFrom",
      "outputs": [],
      "stateMutability": "nonpayable",
      "type": "function"
    },
    {
      "inputs": [
        {
          "internalType": "address",
          "name": "from",
          "type": "address"
        },
        {
          "internalType": "address",
          "name": "to",
          "type": "address"
        },
        {
          "internalType": "uint256",
          "name": "tokenId",
          "type": "uint256"
        },
        {
          "internalType": "bytes",
          "name": "data",
          "type": "bytes"
        }
      ],
      "name": "safeTransferFrom",
      "outputs": [],
      "stateMutability": "nonpayable",
      "type": "function"
    },
    {
      "inputs": [
        {
          "internalType": "address",
          "name": "operator",
          "type": "address"
        },
        {
          "internalType": "bool",
          "name": "approved",
          "type": "bool"
        }
      ],
      "name": "setApprovalForAll",
      "outputs": [],
      "stateMutability": "nonpayable",
      "type": "function"
    },
    {
      "inputs": [
        {
          "components": [
            {
              "internalType": "uint256",
              "name": "id",
              "type": "uint256"
            },
            {
              "internalType": "address",
              "name": "owner",
              "type": "address"
            },
            {
              "internalType": "string",
              "name": "tokenURI",
              "type": "string"
            },
            {
              "internalType": "uint256",
              "name": "paytype",
              "type": "uint256"
            },
            {
              "internalType": "uint256",
              "name": "price",
              "type": "uint256"
            },
            {
              "internalType": "uint256",
              "name": "status",
              "type": "uint256"
            },
            {
              "internalType": "uint256",
              "name": "time",
              "type": "uint256"
            }
          ],
          "internalType": "struct IGroovesNFT.Token",
          "name": "t",
          "type": "tuple"
        },
        {
          "internalType": "uint256",
          "name": "tokenId",
          "type": "uint256"
        }
      ],
      "name": "setToken",
      "outputs": [],
      "stateMutability": "nonpayable",
      "type": "function"
    },
    {
      "inputs": [
        {
          "internalType": "bytes4",
          "name": "interfaceId",
          "type": "bytes4"
        }
      ],
      "name": "supportsInterface",
      "outputs": [
        {
          "internalType": "bool",
          "name": "",
          "type": "bool"
        }
      ],
      "stateMutability": "view",
      "type": "function"
    },
    {
      "inputs": [],
      "name": "symbol",
      "outputs": [
        {
          "internalType": "string",
          "name": "",
          "type": "string"
        }
      ],
      "stateMutability": "view",
      "type": "function"
    },
    {
      "inputs": [
        {
          "internalType": "uint256",
          "name": "tokenId",
          "type": "uint256"
        }
      ],
      "name": "tokenURI",
      "outputs": [
        {
          "internalType": "string",
          "name": "",
          "type": "string"
        }
      ],
      "stateMutability": "view",
      "type": "function"
    },
    {
      "inputs": [
        {
          "internalType": "address",
          "name": "from",
          "type": "address"
        },
        {
          "internalType": "address",
          "name": "to",
          "type": "address"
        },
        {
          "internalType": "uint256",
          "name": "tokenId",
          "type": "uint256"
        }
      ],
      "name": "transferFrom",
      "outputs": [],
      "stateMutability": "nonpayable",
      "type": "function"
    },
    {
      "inputs": [
        {
          "internalType": "address",
          "name": "from",
          "type": "address"
        },
        {
          "internalType": "address",
          "name": "to",
          "type": "address"
        },
        {
          "internalType": "uint256",
          "name": "tokenId",
          "type": "uint256"
        }
      ],
      "name": "transferNFT",
      "outputs": [],
      "stateMutability": "nonpayable",
      "type": "function"
    }
  ],
  "bytecode": "0x6080604052600880546001600160a01b03199081167352e087107876cfd8b460160cca5074956d9ab27e179091556009805490911673494332cffc6ca402547f4485c177622abec370041790553480156200005957600080fd5b506040518060400160405280600a81526020016911dc9bdbdd995cd3919560b21b8152506040518060400160405280600481526020016311d3919560e21b8152508160009081620000ab919062000236565b506001620000ba828262000236565b50620000cc91506000905033620000ec565b600954620000e6906000906001600160a01b0316620000ec565b62000302565b60008281526007602090815260408083206001600160a01b038516845290915290205460ff166200018d5760008281526007602090815260408083206001600160a01b03851684529091529020805460ff191660011790556200014c3390565b6001600160a01b0316816001600160a01b0316837f2f8788117e7eff1d82e926ec794901d17c78024a50270940304540a733656f0d60405160405180910390a45b5050565b634e487b7160e01b600052604160045260246000fd5b600181811c90821680620001bc57607f821691505b602082108103620001dd57634e487b7160e01b600052602260045260246000fd5b50919050565b601f8211156200023157600081815260208120601f850160051c810160208610156200020c5750805b601f850160051c820191505b818110156200022d5782815560010162000218565b5050505b505050565b81516001600160401b0381111562000252576200025262000191565b6200026a81620002638454620001a7565b84620001e3565b602080601f831160018114620002a25760008415620002895750858301515b600019600386901b1c1916600185901b1785556200022d565b600085815260208120601f198616915b82811015620002d357888601518255948401946001909101908401620002b2565b5085821015620002f25787850151600019600388901b60f8161c191681555b5050505050600190811b01905550565b6125e180620003126000396000f3fe608060405234801561001057600080fd5b50600436106101da5760003560e01c80636c14386211610104578063a22cb465116100a2578063d539139311610071578063d53913931461040a578063d547741f14610431578063e985e9c514610444578063f851a4401461048057600080fd5b8063a22cb465146103bc578063aa6ca808146103cf578063b88d4fde146103e4578063c87b56dd146103f757600080fd5b806391d14854116100de57806391d148541461038657806395d89b411461039957806396336b30146103a1578063a217fddf146103b457600080fd5b80636c1438621461035857806370a082311461036057806378fa91a61461037357600080fd5b80632890e0d71161017c57806342966c681161014b57806342966c681461030c5780635afa3a721461031f5780636352211e1461033257806369e9cae11461034557600080fd5b80632890e0d7146102c05780632f2ff15d146102d357806336568abe146102e657806342842e0e146102f957600080fd5b8063095ea7b3116101b8578063095ea7b31461024757806323b872dd1461025c5780632444a8a61461026f578063248a9ca31461028f57600080fd5b806301ffc9a7146101df57806306fdde0314610207578063081812fc1461021c575b600080fd5b6101f26101ed366004611d0d565b610493565b60405190151581526020015b60405180910390f35b61020f6104a4565b6040516101fe9190611d7a565b61022f61022a366004611d8d565b610536565b6040516001600160a01b0390911681526020016101fe565b61025a610255366004611dc2565b61055d565b005b61025a61026a366004611dec565b610677565b61028261027d366004611d8d565b6106a9565b6040516101fe9190611e8d565b6102b261029d366004611d8d565b60009081526007602052604090206001015490565b6040519081526020016101fe565b61025a6102ce366004611d8d565b6107ac565b61025a6102e1366004611ea0565b6107b8565b61025a6102f4366004611ea0565b6107dd565b61025a610307366004611dec565b61085b565b61025a61031a366004611d8d565b610876565b61025a61032d366004611fa1565b61089b565b61022f610340366004611d8d565b6109e4565b61025a610353366004611dec565b61069e565b6102b2610a44565b6102b261036e366004611fe6565b610a54565b61025a610381366004612001565b610ada565b6101f2610394366004611ea0565b610b5a565b61020f610b85565b60085461022f906001600160a01b031681565b6102b2600081565b61025a6103ca3660046120bd565b610b94565b6103d7610b9f565b6040516101fe91906120f9565b61025a6103f236600461215b565b610d49565b61020f610405366004611d8d565b610d81565b6102b27f9f2df0fed2c77648de5860a4cc508cd0818c85b8b8a1ab4ceeef8d981c8956a681565b61025a61043f366004611ea0565b610d8c565b6101f26104523660046121d7565b6001600160a01b03918216600090815260056020908152604080832093909416825291909152205460ff1690565b60095461022f906001600160a01b031681565b600061049e82610db1565b92915050565b6060600080546104b390612201565b80601f01602080910402602001604051908101604052809291908181526020018280546104df90612201565b801561052c5780601f106105015761010080835404028352916020019161052c565b820191906000526020600020905b81548152906001019060200180831161050f57829003601f168201915b5050505050905090565b600061054182610dd6565b506000908152600460205260409020546001600160a01b031690565b6000610568826109e4565b9050806001600160a01b0316836001600160a01b0316036105da5760405162461bcd60e51b815260206004820152602160248201527f4552433732313a20617070726f76616c20746f2063757272656e74206f776e656044820152603960f91b60648201526084015b60405180910390fd5b336001600160a01b03821614806105f657506105f68133610452565b6106685760405162461bcd60e51b815260206004820152603d60248201527f4552433732313a20617070726f76652063616c6c6572206973206e6f7420746f60448201527f6b656e206f776e6572206f7220617070726f76656420666f7220616c6c00000060648201526084016105d1565b6106728383610e35565b505050565b610682335b82610ea3565b61069e5760405162461bcd60e51b81526004016105d190612235565b610672838383610f22565b6106b1611c63565b6000828152600a6020908152604091829020825160e0810184528154815260018201546001600160a01b03169281019290925260028101805492939192918401916106fb90612201565b80601f016020809104026020016040519081016040528092919081815260200182805461072790612201565b80156107745780601f1061074957610100808354040283529160200191610774565b820191906000526020600020905b81548152906001019060200180831161075757829003601f168201915b505050505081526020016003820154815260200160048201548152602001600582015481526020016006820154815250509050919050565b6107b581611086565b50565b6000828152600760205260409020600101546107d38161108f565b6106728383611099565b6001600160a01b038116331461084d5760405162461bcd60e51b815260206004820152602f60248201527f416363657373436f6e74726f6c3a2063616e206f6e6c792072656e6f756e636560448201526e103937b632b9903337b91039b2b63360891b60648201526084016105d1565b610857828261111f565b5050565b61067283838360405180602001604052806000815250610d49565b61087f3361067c565b6107ac5760405162461bcd60e51b81526004016105d190612235565b6108a6600033610b5a565b6108eb5760405162461bcd60e51b815260206004820152601660248201527521b0b63632b91034b9903737ba1030b71020b236b4b760511b60448201526064016105d1565b60005b8181101561067257610904600b80546001019055565b600061090f600b5490565b905061091b3382611186565b61092581856111a0565b6040805160e08101825282815233602080830191825282840188815260006060850181905260808501819052600160a086018190524260c0870152878252600a9093529490942083518155915190820180546001600160a01b0319166001600160a01b03909216919091179055915190919060028201906109a690826122d0565b50606082015160038201556080820151600482015560a0820151600582015560c09091015160069091015550806109dc816123a6565b9150506108ee565b6000818152600260205260408120546001600160a01b03168061049e5760405162461bcd60e51b8152602060048201526018602482015277115490cdcc8c4e881a5b9d985b1a59081d1bdad95b88125160421b60448201526064016105d1565b6000610a4f600b5490565b905090565b60006001600160a01b038216610abe5760405162461bcd60e51b815260206004820152602960248201527f4552433732313a2061646472657373207a65726f206973206e6f7420612076616044820152683634b21037bbb732b960b91b60648201526084016105d1565b506001600160a01b031660009081526003602052604090205490565b6000818152600a602090815260409182902084518155908401516001820180546001600160a01b0319166001600160a01b03909216919091179055908301518391906002820190610b2b90826122d0565b50606082015160038201556080820151600482015560a0820151600582015560c0909101516006909101555050565b60009182526007602090815260408084206001600160a01b0393909316845291905290205460ff1690565b6060600180546104b390612201565b61085733838361126b565b60606000610bac600b5490565b67ffffffffffffffff811115610bc457610bc4611ecc565b604051908082528060200260200182016040528015610bfd57816020015b610bea611c63565b815260200190600190039081610be25790505b50905060005b600b54811015610d43576000600a81610c1d8460016123bf565b81526020808201929092526040908101600020815160e0810183528154815260018201546001600160a01b0316938101939093526002810180549194508492840191610c6890612201565b80601f0160208091040260200160405190810160405280929190818152602001828054610c9490612201565b8015610ce15780601f10610cb657610100808354040283529160200191610ce1565b820191906000526020600020905b815481529060010190602001808311610cc457829003601f168201915b50505050508152602001600382015481526020016004820154815260200160058201548152602001600682015481525050838381518110610d2457610d246123d2565b6020026020010181905250508080610d3b906123a6565b915050610c03565b50919050565b610d533383610ea3565b610d6f5760405162461bcd60e51b81526004016105d190612235565b610d7b84848484611339565b50505050565b606061049e8261136c565b600082815260076020526040902060010154610da78161108f565b610672838361111f565b60006001600160e01b03198216637965db0b60e01b148061049e575061049e82611474565b6000818152600260205260409020546001600160a01b03166107b55760405162461bcd60e51b8152602060048201526018602482015277115490cdcc8c4e881a5b9d985b1a59081d1bdad95b88125160421b60448201526064016105d1565b600081815260046020526040902080546001600160a01b0319166001600160a01b0384169081179091558190610e6a826109e4565b6001600160a01b03167f8c5be1e5ebec7d5bd14f71427d1e84f3dd0314c0f7b2291e5b200ac8c7c3b92560405160405180910390a45050565b600080610eaf836109e4565b9050806001600160a01b0316846001600160a01b03161480610ef657506001600160a01b0380821660009081526005602090815260408083209388168352929052205460ff165b80610f1a5750836001600160a01b0316610f0f84610536565b6001600160a01b0316145b949350505050565b826001600160a01b0316610f35826109e4565b6001600160a01b031614610f5b5760405162461bcd60e51b81526004016105d1906123e8565b6001600160a01b038216610fbd5760405162461bcd60e51b8152602060048201526024808201527f4552433732313a207472616e7366657220746f20746865207a65726f206164646044820152637265737360e01b60648201526084016105d1565b826001600160a01b0316610fd0826109e4565b6001600160a01b031614610ff65760405162461bcd60e51b81526004016105d1906123e8565b600081815260046020908152604080832080546001600160a01b03199081169091556001600160a01b0387811680865260038552838620805460001901905590871680865283862080546001019055868652600290945282852080549092168417909155905184937fddf252ad1be2c89b69c2b068fc378daa952ba7f163c4a11628f55a4df523b3ef91a4505050565b6107b581611499565b6107b581336114d9565b6110a38282610b5a565b6108575760008281526007602090815260408083206001600160a01b03851684529091529020805460ff191660011790556110db3390565b6001600160a01b0316816001600160a01b0316837f2f8788117e7eff1d82e926ec794901d17c78024a50270940304540a733656f0d60405160405180910390a45050565b6111298282610b5a565b156108575760008281526007602090815260408083206001600160a01b0385168085529252808320805460ff1916905551339285917ff6391f5c32d9c69d2a47ea670b442974b53935d1edc7fd64eb21e047a839171b9190a45050565b610857828260405180602001604052806000815250611532565b6000828152600260205260409020546001600160a01b031661121b5760405162461bcd60e51b815260206004820152602e60248201527f45524337323155524953746f726167653a2055524920736574206f66206e6f6e60448201526d32bc34b9ba32b73a103a37b5b2b760911b60648201526084016105d1565b600082815260066020526040902061123382826122d0565b506040518281527ff8e1a15aba9398e019f0b49df1a4fde98ee17ae345cb5f6b5e2c27f5033e8ce79060200160405180910390a15050565b816001600160a01b0316836001600160a01b0316036112cc5760405162461bcd60e51b815260206004820152601960248201527f4552433732313a20617070726f766520746f2063616c6c65720000000000000060448201526064016105d1565b6001600160a01b03838116600081815260056020908152604080832094871680845294825291829020805460ff191686151590811790915591519182527f17307eab39ab6107e8899845ad3d59bd9653f200f220920489ca2b5937696c31910160405180910390a3505050565b611344848484610f22565b61135084848484611565565b610d7b5760405162461bcd60e51b81526004016105d19061242d565b606061137782610dd6565b6000828152600660205260408120805461139090612201565b80601f01602080910402602001604051908101604052809291908181526020018280546113bc90612201565b80156114095780601f106113de57610100808354040283529160200191611409565b820191906000526020600020905b8154815290600101906020018083116113ec57829003601f168201915b50505050509050600061142760408051602081019091526000815290565b90508051600003611439575092915050565b81511561146b57808260405160200161145392919061247f565b60405160208183030381529060405292505050919050565b610f1a84611666565b60006001600160e01b03198216632483248360e11b148061049e575061049e826116da565b6114a28161172a565b600081815260066020526040902080546114bb90612201565b1590506107b55760008181526006602052604081206107b591611ca9565b6114e38282610b5a565b610857576114f0816117bf565b6114fb8360206117d1565b60405160200161150c9291906124ae565b60408051601f198184030181529082905262461bcd60e51b82526105d191600401611d7a565b61153c838361196d565b6115496000848484611565565b6106725760405162461bcd60e51b81526004016105d19061242d565b60006001600160a01b0384163b1561165b57604051630a85bd0160e11b81526001600160a01b0385169063150b7a02906115a9903390899088908890600401612523565b6020604051808303816000875af19250505080156115e4575060408051601f3d908101601f191682019092526115e191810190612560565b60015b611641573d808015611612576040519150601f19603f3d011682016040523d82523d6000602084013e611617565b606091505b5080516000036116395760405162461bcd60e51b81526004016105d19061242d565b805181602001fd5b6001600160e01b031916630a85bd0160e11b149050610f1a565b506001949350505050565b606061167182610dd6565b600061168860408051602081019091526000815290565b905060008151116116a857604051806020016040528060008152506116d3565b806116b284611af8565b6040516020016116c392919061247f565b6040516020818303038152906040525b9392505050565b60006001600160e01b031982166380ac58cd60e01b148061170b57506001600160e01b03198216635b5e139f60e01b145b8061049e57506301ffc9a760e01b6001600160e01b031983161461049e565b6000611735826109e4565b9050611740826109e4565b600083815260046020908152604080832080546001600160a01b03199081169091556001600160a01b0385168085526003845282852080546000190190558785526002909352818420805490911690555192935084927fddf252ad1be2c89b69c2b068fc378daa952ba7f163c4a11628f55a4df523b3ef908390a45050565b606061049e6001600160a01b03831660145b606060006117e083600261257d565b6117eb9060026123bf565b67ffffffffffffffff81111561180357611803611ecc565b6040519080825280601f01601f19166020018201604052801561182d576020820181803683370190505b509050600360fc1b81600081518110611848576118486123d2565b60200101906001600160f81b031916908160001a905350600f60fb1b81600181518110611877576118776123d2565b60200101906001600160f81b031916908160001a905350600061189b84600261257d565b6118a69060016123bf565b90505b600181111561191e576f181899199a1a9b1b9c1cb0b131b232b360811b85600f16601081106118da576118da6123d2565b1a60f81b8282815181106118f0576118f06123d2565b60200101906001600160f81b031916908160001a90535060049490941c9361191781612594565b90506118a9565b5083156116d35760405162461bcd60e51b815260206004820181905260248201527f537472696e67733a20686578206c656e67746820696e73756666696369656e7460448201526064016105d1565b6001600160a01b0382166119c35760405162461bcd60e51b815260206004820181905260248201527f4552433732313a206d696e7420746f20746865207a65726f206164647265737360448201526064016105d1565b6000818152600260205260409020546001600160a01b031615611a285760405162461bcd60e51b815260206004820152601c60248201527f4552433732313a20746f6b656e20616c7265616479206d696e7465640000000060448201526064016105d1565b6000818152600260205260409020546001600160a01b031615611a8d5760405162461bcd60e51b815260206004820152601c60248201527f4552433732313a20746f6b656e20616c7265616479206d696e7465640000000060448201526064016105d1565b6001600160a01b038216600081815260036020908152604080832080546001019055848352600290915280822080546001600160a01b0319168417905551839291907fddf252ad1be2c89b69c2b068fc378daa952ba7f163c4a11628f55a4df523b3ef908290a45050565b60606000611b0583611b8b565b600101905060008167ffffffffffffffff811115611b2557611b25611ecc565b6040519080825280601f01601f191660200182016040528015611b4f576020820181803683370190505b5090508181016020015b600019016f181899199a1a9b1b9c1cb0b131b232b360811b600a86061a8153600a8504945084611b5957509392505050565b60008072184f03e93ff9f4daa797ed6e38ed64bf6a1f0160401b8310611bca5772184f03e93ff9f4daa797ed6e38ed64bf6a1f0160401b830492506040015b6d04ee2d6d415b85acef81000000008310611bf6576d04ee2d6d415b85acef8100000000830492506020015b662386f26fc100008310611c1457662386f26fc10000830492506010015b6305f5e1008310611c2c576305f5e100830492506008015b6127108310611c4057612710830492506004015b60648310611c52576064830492506002015b600a831061049e5760010192915050565b6040518060e001604052806000815260200160006001600160a01b0316815260200160608152602001600081526020016000815260200160008152602001600081525090565b508054611cb590612201565b6000825580601f10611cc5575050565b601f0160209004906000526020600020908101906107b591905b80821115611cf35760008155600101611cdf565b5090565b6001600160e01b0319811681146107b557600080fd5b600060208284031215611d1f57600080fd5b81356116d381611cf7565b60005b83811015611d45578181015183820152602001611d2d565b50506000910152565b60008151808452611d66816020860160208601611d2a565b601f01601f19169290920160200192915050565b6020815260006116d36020830184611d4e565b600060208284031215611d9f57600080fd5b5035919050565b80356001600160a01b0381168114611dbd57600080fd5b919050565b60008060408385031215611dd557600080fd5b611dde83611da6565b946020939093013593505050565b600080600060608486031215611e0157600080fd5b611e0a84611da6565b9250611e1860208501611da6565b9150604084013590509250925092565b8051825260018060a01b0360208201511660208301526000604082015160e06040850152611e5960e0850182611d4e565b9050606083015160608501526080830151608085015260a083015160a085015260c083015160c08501528091505092915050565b6020815260006116d36020830184611e28565b60008060408385031215611eb357600080fd5b82359150611ec360208401611da6565b90509250929050565b634e487b7160e01b600052604160045260246000fd5b60405160e0810167ffffffffffffffff81118282101715611f0557611f05611ecc565b60405290565b600067ffffffffffffffff80841115611f2657611f26611ecc565b604051601f8501601f19908116603f01168101908282118183101715611f4e57611f4e611ecc565b81604052809350858152868686011115611f6757600080fd5b858560208301376000602087830101525050509392505050565b600082601f830112611f9257600080fd5b6116d383833560208501611f0b565b60008060408385031215611fb457600080fd5b823567ffffffffffffffff811115611fcb57600080fd5b611fd785828601611f81565b95602094909401359450505050565b600060208284031215611ff857600080fd5b6116d382611da6565b6000806040838503121561201457600080fd5b823567ffffffffffffffff8082111561202c57600080fd5b9084019060e0828703121561204057600080fd5b612048611ee2565b8235815261205860208401611da6565b602082015260408301358281111561206f57600080fd5b61207b88828601611f81565b604083015250606083013560608201526080830135608082015260a083013560a082015260c083013560c0820152809450505050602083013590509250929050565b600080604083850312156120d057600080fd5b6120d983611da6565b9150602083013580151581146120ee57600080fd5b809150509250929050565b6000602080830181845280855180835260408601915060408160051b870101925083870160005b8281101561214e57603f1988860301845261213c858351611e28565b94509285019290850190600101612120565b5092979650505050505050565b6000806000806080858703121561217157600080fd5b61217a85611da6565b935061218860208601611da6565b925060408501359150606085013567ffffffffffffffff8111156121ab57600080fd5b8501601f810187136121bc57600080fd5b6121cb87823560208401611f0b565b91505092959194509250565b600080604083850312156121ea57600080fd5b6121f383611da6565b9150611ec360208401611da6565b600181811c9082168061221557607f821691505b602082108103610d4357634e487b7160e01b600052602260045260246000fd5b6020808252602d908201527f4552433732313a2063616c6c6572206973206e6f7420746f6b656e206f776e6560408201526c1c881bdc88185c1c1c9bdd9959609a1b606082015260800190565b601f82111561067257600081815260208120601f850160051c810160208610156122a95750805b601f850160051c820191505b818110156122c8578281556001016122b5565b505050505050565b815167ffffffffffffffff8111156122ea576122ea611ecc565b6122fe816122f88454612201565b84612282565b602080601f831160018114612333576000841561231b5750858301515b600019600386901b1c1916600185901b1785556122c8565b600085815260208120601f198616915b8281101561236257888601518255948401946001909101908401612343565b50858210156123805787850151600019600388901b60f8161c191681555b5050505050600190811b01905550565b634e487b7160e01b600052601160045260246000fd5b6000600182016123b8576123b8612390565b5060010190565b8082018082111561049e5761049e612390565b634e487b7160e01b600052603260045260246000fd5b60208082526025908201527f4552433732313a207472616e736665722066726f6d20696e636f72726563742060408201526437bbb732b960d91b606082015260800190565b60208082526032908201527f4552433732313a207472616e7366657220746f206e6f6e20455243373231526560408201527131b2b4bb32b91034b6b83632b6b2b73a32b960711b606082015260800190565b60008351612491818460208801611d2a565b8351908301906124a5818360208801611d2a565b01949350505050565b7f416363657373436f6e74726f6c3a206163636f756e74200000000000000000008152600083516124e6816017850160208801611d2a565b7001034b99036b4b9b9b4b733903937b6329607d1b6017918401918201528351612517816028840160208801611d2a565b01602801949350505050565b6001600160a01b038581168252841660208201526040810183905260806060820181905260009061255690830184611d4e565b9695505050505050565b60006020828403121561257257600080fd5b81516116d381611cf7565b808202811582820484141761049e5761049e612390565b6000816125a3576125a3612390565b50600019019056fea2646970667358221220549d5152732dc9b44fb311479c40001c18b4d2a5254a02f1a7f6a55a9d2d401564736f6c63430008120033",
  "linkReferences": {},
  "deployedLinkReferences": {}
}